:020000040800F2
:10200000E02C0020C9210008FF3F00082D550008E2
:10201000A3570008CD2B00085985000800000000D8
:10202000000000000000000000000000716E0008C9
:10203000353D000800000000295900086D710008B6
:10204000E3210008E3210008E3210008E321000860
:10205000E3210008E3210008E3210008653F0008B0
:10206000E3210008E3210008E3210008E321000840
:10207000E3210008E3210008E3210008E321000830
:10208000E3210008E3210008E3210008E321000820
:10209000E3210008E3210008E3210008E321000810
:1020A000E3210008E3210008E3210008E321000800
:1020B00001720008CD720008E3210008E321000846
:1020C000E3210008E3210008E3210008E3210008E0
:1020D000E32100082D820008E3210008E321000825
:1020E000E3210008E3210008E321000800F002F8E2
:1020F00000F041F80AA090E8000C82448344AAF161
:102100000107DA4501D100F036F8AFF2090EBAE85E
:102110000F0013F0010F18BFFB1A43F0010318471B
:10212000BC8C0000DC8C0000103A24BF78C878C159
:10213000FAD8520724BF30C830C144BF04680C60CD
:10214000704700000023002400250026103A28BF15
:1021500078C1FBD8520728BF30C148BF0B60704719
:10216000782900F08D80002070471FB500F065F9D8
:102170001FBD10B510BD00F080FA1146FFF7F5FF46
:1021800007F032FA00F09EFA03B4FFF7F2FF03BC47
:1021900000F0A8FA0B49D1F800C04A685CF8043B8B
:1021A0001068184442F8040B8C4528BFA1F1DC0CE0
:1021B0008A4228BFA1F1DC02C1F800C04A6020F0C9
:1021C00000407047741800200948804709480047BC
:1021D000FEE7FEE7FEE7FEE7FEE7FEE7FEE7FEE7D7
:1021E000FEE7FEE704480549054A064B7047000034
:1021F000A1710008ED200008E0180020E02C00206C
:10220000E01A0020E01A00200FB41CB5074B06AA04
:102210007B4469460090059800F0E5F90020694686
:1022200000F0F4F91CBC5DF814FB0000F903000099
:1022300070B5044685690068C10601D5302600E006
:102240002026C00707D070BDD4E901213046904751
:10225000206A401C20626D1EF6D570BD70B5044624
:1022600085690078C00707D170BDD4E9012120201D
:102270009047206A401C20626D1EF6D570BD00009C
:1022800070B504460D4621461068AFF300802188E2
:10229000090502D50F4A7A4402E00E4A7A440E320A
:1022A000002104F1240305E000F00F060009965D0B
:1022B0005E54491C0028F7D120780023000704D57C
:1022C000702D02D009B1022311322046BDE87040C2
:1022D00000F02BB9088B00002DE9F05F8946044619
:1022E0004FF0000ADFF824B1FB44C0F820A02046DC
:1022F000E168884700287DD0252806D0D4E901214F
:102300009047206A401C2062F1E700255F46204686
:10231000E16888472028064607DB312E05D2B81928
:1023200010F8200C08B10543F1E7A80701D525F006
:102330000405C4F81CA00027C4F818A02A2E09D050
:10234000304606F0E3FA38B304EB8708303EC8F8AD
:10235000186019E059F8041B204604EB87029161CC
:10236000E1688847012F064618D1E069002820DA85
:1023700025F020051DE0D8F8180000EB800006EBE2
:1023800040003038C8F818002046E1688847064603
:1023900006F0BCFA0028EED1012F0AD02E2E08D16B
:1023A0002046E16888477F1C0646022F45F020053D
:1023B000C4DBA069002803DA404245F00105A061B2
:1023C000E80701D025F01005A6B1A6F141001928B3
:1023D00002D8203645F400654A463146204625603D
:1023E0004D46FFF7BDFE60B1012807D0ED1D25F079
:1023F000070000E007E000F1080978E705F10409AB
:1024000075E730467AE7206ABDE8F09FDE8A000073
:102410000B4910B5A1F17C020A4CC2E937123721F1
:1024200006E000EB104342F82130074B00FB03406D
:102430000B1EA1F10101F4DC10BD0120E8E7000052
:1024400014180020E119D666CD0D0100032A40F2D0
:10245000308010F0030C00F0158011F8013BBCF146
:10246000020F624498BF11F801CB00F8013B38BF5E
:1024700011F8013BA2F1040298BF00F801CB38BF6C
:1024800000F8013B11F0030300F0C580083AC0F0EA
:10249000088051F8043B083A51F804CBA0E8081032
:1024A000F5E7121D5CBF51F8043B40F8043BAFF365
:1024B0000080D20724BF11F8013B11F801CB48BFBF
:1024C00011F8012B24BF00F8013B00F801CB48BFF5
:1024D00000F8012B70474FF0000200B513469446F8
:1024E0009646203922BFA0E80C50A0E80C50B1F16C
:1024F0002001BFF4F7AF090728BFA0E80C5048BF80
:102500000CC05DF804EB890028BF40F8042B08BF1D
:10251000704748BF20F8022B11F0804F18BF00F819
:10252000012B70477047704770472DE9F0470D4603
:1025300099469246044600F124080168880604D5AD
:10254000E06921F01001216000E00120A84201DDD6
:10255000471B00E00027A1697A1902EB0900081A5D
:10256000A0612078C00602D42046FFF761FE002655
:1025700008E0D4E901211AF806009047206A401CBF
:10258000761C20624E45F4DB2078C0060AD5204632
:10259000FFF74EFE06E0D4E9012130209047206A83
:1025A000401C2062381EA7F10107F4DC07E0D4E9E3
:1025B000012118F805009047206A401C2062281E5F
:1025C000A5F10105F3DC2046FFF748FE2078000660
:1025D00002D50220BDE8F0870120FBE701694A1C13
:1025E00002610878704700B58FB0CDE90131002154
:1025F000059105497944CDE9031011466846FFF776
:102600006BFE0FB000BD0000E5FFFFFF0A6802F897
:10261000010B0A60704710B5203AC0F00B80B1E89A
:102620001850203AA0E81850B1E81850A0E8185007
:10263000BFF4F5AF5FEA027C24BFB1E81850A0E810
:10264000185044BF18C918C0BDE810405FEA827C2A
:1026500024BF51F8043B40F8043B08BF7047D20741
:1026600028BF31F8023B48BF11F8012B28BF20F8E2
:10267000023B48BF00F8012B7047754600F02CF86C
:10268000AE4605006946534620F00700854618B05F
:1026900020B5FFF7A7FDBDE820404FF000064FF042
:1026A00000074FF000084FF0000B21F00701AC4687
:1026B000ACE8C009ACE8C009ACE8C009ACE8C009A6
:1026C0008D46704710B50446AFF300802046BDE844
:1026D0001040FFF759BD0000004870477C180020EB
:1026E0007047000001491820ABBEFEE7260002003B
:1026F0002DE9F04705460E4617469846DDF820902E
:1027000000243B48007800283BDD00BF37E0394813
:1027100000EB0410408978B3364800EB0410408980
:10272000A8422AD1334800EB0410007BB04224D1E8
:10273000B8F1010F0FD12F4800EB041047602D486E
:1027400000EB0410A0F8089002F044FE294901EBC8
:102750000411086009E00020264901EB04114881BA
:1027600023480078401E22490870234A0021022095
:1027700004F0B2FCBDE8F087FFE7601CC4B20A2C8D
:10278000C5DBB8F1010F31D1194800780A2800DB08
:10279000F0E7002428E0174800EB0410408908BB4C
:1027A00002F018FE134901EB04110860114800EB18
:1027B000041045810F4800EB041006730D4800EB30
:1027C000041047600B4800EB0410A0F8089008487C
:1027D0000078401C06490870074A0021022004F0D6
:1027E0007BFCC7E7601CC4B20A2CD4DB00BFC1E786
:1027F000CA000020C01600202529000808B50121C4
:10280000082003F0E1F84FF4E060ADF8000010207C
:102810008DF8030003208DF802006946094802F094
:10282000F7FC4FF48071074802F0CFFD4FF40071C0
:10283000044802F0CAFD4FF48061024802F0C5FD71
:1028400008BD0000000C014010B5002005490860DB
:102850000549C1F8A401034908310860042004F0C7
:1028600079FC10BDA08121420080214210B528488A
:10287000C07900283BD02748007850B9012026496C
:10288000086000202549C1F8A401234908310860E7
:1028900021E02048007801280BD100201E49086063
:1028A00001201E49C1F8A40100201B49083108601D
:1028B00011E01848007802280AD100201649086063
:1028C0001649C1F8A401012013490831086002E04B
:1028D0000020104908700F480078401C0D4908700E
:1028E0000846007802280BDD0020087008E0002070
:1028F000094908600949C1F8A4010749083108607D
:10290000AFF2970206480168042004F0E5FB10BD11
:1029100030100020E0000020A081214200802142F0
:10292000D800002070B54FF6FF750024FF266F48D1
:10293000007800282CDD00BF27E06D4800EB041074
:10294000408900B36A4800EB0410007BFF281AD0CE
:1029500002F040FD664901EB04110968401A644920
:1029600001EB0411496888420DD30020604901EB56
:10297000041148815D480078401E5C490870084693
:10298000007800B903E0601CC4B20A2CD5DB00BF9C
:102990005648007800287DDD002418E0544800EBFC
:1029A0000410408988B1524800EB0410007BFF28D6
:1029B0000AD04F4800EB04100089A84205DC4C48BF
:1029C00000EB0410058900E02646601CC4B20A2C06
:1029D000E4DB4FF6FF7085424CD04648807A0128F0
:1029E0000ED14448C07A4FF4FA7148434249086016
:1029F0004048007B4FF4FA714843404908601AE0B0
:102A00003C48807A022807D142F210703A490860A7
:102A100000203A4908600EE0384805604FF4FA702B
:102A20003549086035480068B0F5FA7F03D24FF4A5
:102A3000FA70324908604FF4FA60684342F210714C
:102A4000B0FBF1F02E49086008460068B0F5FA7F47
:102A500002D24FF4FA7008602A48007838BB002090
:102A60002949087001202749087000F0B1F8FFF7E4
:102A7000FDFE33E023480078012808D100202249D8
:102A800008702049087000F06BF9FFF7DDFEFF2E9B
:102A900024D000E00CE01C48007840B901201A491D
:102AA00008704FF47A7016490860FFF7DFFE15E0F2
:102AB00014480078012808D10020134908701149F2
:102AC000087000F04DF9FFF7BFFE0F4800780128AD
:102AD00004D100200C490870FFF7B6FEAFF2BB121C
:102AE00042F21071022004F0F7FA70BDCA00002013
:102AF000C016002030100020D4000020D00000209C
:102B0000D8000020CB000020DC00002070B500BF02
:102B100001F011F902F05EFC0546FFF779FCFFF7C2
:102B200039FB0B2190FBF1F201FB120042F29F41B5
:102B30004843054901EB8014AFF22F0221460620DD
:102B400004F0CAFA70BD0000808D5B0010B5082249
:102B50001A491B4804F0EDF81848407B182819D092
:102B600040F259101549088049F2105048806420FD
:102B7000888001208871C87108720A20487200207C
:102B800088720220C87208731820487308220C4803
:102B900004F0DCF803220B490B4804F0CAF809489A
:102BA0008078552808D00020064908805520887074
:102BB0000322054804F0CAF810BD000030100020C0
:102BC00000F401086200002000F8010800BFFEE7E1
:102BD00010B55E480078002851D15D480068E8B91A
:102BE0001C2002F013FE00220121880704F0B4FB30
:102BF00000214FF0804004F089FB0121880704F098
:102C000082FB00205349086050490870AFF23F0230
:102C100042F21071032004F05FFA95E04E48007A0A
:102C2000A0B11C2001F0D6F901280FD0012188079E
:102C300004F069FB1C2002F020FE012211469007DF
:102C400004F08AFB0121880704F060FB4348006818
:102C500050B900203D490870AFF28B0242F210716A
:102C6000032004F039FA6FE0012038490870AFF210
:102C70009F0237480168032004F02EFA64E03748C9
:102C80000068002843D132480068E8B91C2002F0EF
:102C9000BDFD00220121880704F05EFB00214FF0FA
:102CA000804004F033FB0121880704F02CFB002056
:102CB0002849086025490870AFF2EB0242F2107112
:102CC000032004F009FA3FE02348007AA0B11C2059
:102CD00001F080F901280FD00121880704F013FBCF
:102CE0001C2002F0CAFD01221146900704F034FBBB
:102CF0000121880704F00AFB012014490870AFF293
:102D00002F1242F21071032004F0E6F91CE01C209F
:102D100002F07CFD00220121880704F01DFB002148
:102D20004FF0804004F0F2FA0121880704F0EBFA3A
:102D300000200849086005490870AFF26B12074887
:102D40000168032004F0C8F910BD0000CC00002089
:102D5000D4000020B801214230100020D000002013
:102D600010B51C2002F052FD00220121880704F05A
:102D7000F3FA00214FF0804004F0C8FA01218807DF
:102D800004F0C1FA032004F0E5F9002002490860CC
:102D90000249087010BD0000B8012142CC0000209B
:102DA0002DE9FF47002700240025002003904FF065
:102DB000050800264FF004094FF4484402F0F0FBE8
:102DC000E820374908720121354841721921817282
:102DD0000121C172252101732121417319218173C0
:102DE0000521C1731621017415214174210C8174D0
:102DF000210AC17404758E2141750E20284908806E
:102E0000002081F887004FF6FF70C88048800123BA
:102E100000221146224803F0F7F98046B8F1000F6E
:102E200037D102F0D7FA07462DE003F019FE064627
:102E3000FF2E28D0002003AACDE9002003467F22E0
:102E400018490290304603F037FE0546062D1AD188
:102E500014480078F82816D112484078012812D179
:102E6000681E1049085C8F280DD1084690F8029022
:102E70000079C97800EB01200B490880BDF80C00EF
:102E80000A49088004E002F0A5FAC01B0C28CCD344
:102E900002E0002003F000F9484604B0BDE8F087E6
:102EA000C0100020401000204400002046000020F8
:102EB0002DE9F04F89B000200890002780460024BB
:102EC000814682460790052006904FF0000B0025B2
:102ED000002601200590FF200490E8205249087246
:102EE0000421514841728E21817203204E4908808D
:102EF000002081F887004D480088C8804C48008831
:102F0000488000BF87E002F04BFB012300221146FE
:102F1000454803F079F906900698002874D102F02C
:102F200059FA089068E003F09BFD04900498FF288C
:102F300062D0002007AACDE9002003467F223D4948
:102F40000290049803F0B8FD8246BAF1070F53D1FE
:102F500038480078F8284FD13648407804284BD1BB
:102F6000AAF101003349085C8F2845D12F48008819
:102F7000BDF81C1088423FD12E48807800062D49AC
:102F8000C97800EB01402B49097900EB0120294960
:102F90004979471822E028480068001B402801D9D9
:102FA000402503E024480078001BC5B22A461E498C
:102FB00008312248484403F033FA002605E01A4855
:102FC0000830805D8044701CC6B2AE42F7DB2C44F2
:102FD000A94419480068844200D300E0DBE700BF41
:102FE000474504D1002005901548076001E0012005
:102FF00005904FF0640B05E002F0ECF90899401AD7
:103000001E2890D303E0FFE7002003F045F80BF102
:10301000010000F0FF0BBBF1140FFFF674AF059831
:1030200009B0BDE8F08F0000C0100020460000206D
:1030300044000020401000204800002000E8000864
:103040004C0000202DE9FF470027002400200390BA
:103050004FF0050800254FF00209FF26E8205A49E5
:1030600008720221584841728E218172032056490C
:103070000880002081F8870054480088C8805448A0
:103080000088488000BF98E002F08AFA01230022FD
:1030900011464D4803F0B8F88046B8F1000F7BD1D7
:1030A00002F098F907467CE003F0DAFC0646FF2EB2
:1030B00077D0002003AACDE9002003467F224549AE
:1030C0000290304603F0F8FC04460E2C69D14148CA
:1030D0000078F82865D13F484078022861D1601E09
:1030E0003C49085C8F285CD138480088BDF80C103A
:1030F000884256D13748807800043649C97800EBB9
:10310000012034490979084433490860314840793D
:10311000324908702F48807948702E48C0798870ED
:103120002C48007AC8702B48407A2D4908702948ED
:10313000807A48702748C07A88702648007BC8701B
:103140002548006828B324480068B0F5484F20D8C7
:10315000084600780006497800EB0140204989784C
:1031600000EB01201E49C97808441E49884210D04E
:103170001A48007800061949497800EB01401749C0
:10318000897800EB01201549C9780844164988421E
:1031900003D04FF0010902E00AE04FF00009642576
:1031A00005E002F017F9C01B1E28FFF47DAF02E016
:1031B000002002F071FF681CC5B20A2DFFF664AF53
:1031C000484604B0BDE8F087C0100020460000204B
:1031D000440000204010002048000020540000203F
:1031E0005000002015160519212501192DE9F04F71
:1031F000ADF5057D0024A246A046002084904FF046
:10320000050B00264FF0FF09002700254FF4007141
:1032100004A8FFF760F95548006820B153480068DA
:10322000B0F5484F04D901200DF5057DBDE8F08FBC
:1032300094E0E8204E49087203214D484172210C68
:103240008172210AC17204738E214173062048499C
:103250000880002081F8870046480088C8804648DA
:1032600000884880002674E002F09AF901230022C9
:1032700011463F4802F0C8FF8346BBF1000F63D1FF
:1032800002F0A8F8824658E003F0EAFB8146B9F163
:10329000FF0F52D0002084AACDE9002003467F22F0
:1032A00036490290484603F007FC8046B8F1460FC5
:1032B00043D132480078F8283FD13048407803287D
:1032C0003BD12E48807800042C49C97800EB0120BE
:1032D0002A4909790844A0422FD1A8F101002749C1
:1032E000085C8F2829D123480088BDF81012884235
:1032F00023D104A9481940222049491DFFF7A6F807
:1033000005F1400085B24034B5F5007F09DB1C496A
:1033100078188A1404A905F043F907F50077002509
:1033200009E012480068844205D3154978182A46F6
:1033300004A905F035F9642605E002F04BF8A0EB8E
:103340000A003228A0D302E0002002F0A5FE701C83
:10335000C6B2142E88DB01D1022065E7034800685D
:103360008442FFF466AF00205EE7000048000020C2
:10337000C010002046000020440000204010002023
:1033800000E800082DE9FF5F05460C464FF00009F4
:103390000026002003904FF0050A00274FF0010B94
:1033A0004FF0FF08E820394908720521374841727B
:1033B00085721921C17201210173252141732121D7
:1033C0008173210EC173210C0174210A417484742C
:1033D0008E21C1740C202D490880002081F88700BF
:1033E0002B480088C8802B480088488000BF46E0F2
:1033F00002F0D6F8012300221146244802F004FF0F
:103400008246BAF1000F35D101F0E4FF81462AE08F
:1034100003F026FB8046B8F1FF0F24D0002003AA5A
:10342000CDE9002003467F221B490290404603F06D
:1034300043FB0646032E16D117480078F82812D110
:103440001548407805280ED1701E1349085C8F2856
:1034500009D10F480088BDF80C10884203D14FF005
:10346000000B642705E001F0B5FFA0EB09001E2862
:10347000CED302E0002002F00FFE781CC7B2142F5A
:10348000B6DB584604B0BDE8F09F0000C010002035
:103490004600002044000020401000201FB50121FC
:1034A000092002F091FA0220ADF80C0028208DF8D6
:1034B0000F0003A9134801F0ABFE0121084601F0FB
:1034C00087FE0220019000208DF8080008208DF86A
:1034D000090001208DF80A0001A800F095FD0220E6
:1034E00000F064FD07208DF8000001208DF8010038
:1034F00000208DF8020001208DF80300684602F0DC
:10350000C7F91FBD000C014070B58AB00026002429
:10351000142105A8FEF7DFFF14216846FEF7DBFF44
:10352000FFF7BCFF00F0AAF802F03AF800F0AAF8A2
:1035300020B12CA004F06EFE00BFFEE702F030F8D0
:103540002EA004F067FE00240CE0FEF723FE0546E3
:10355000C01705EB10600012A5EB002005A9085567
:10356000601CC4B2142CF0DB05AB14220021212016
:1035700005F0DCFF6B4614220021212005F011FE2E
:10358000002408E005A8005D1DF80410884200D062
:1035900003E0601CC4B2142CF4DB00BF142C04D074
:1035A0001BA004F037FE00BFFEE721A004F032FEAE
:1035B00006F0FBFB012005F0E5FB0646701C20B978
:1035C00023A004F027FE00BFFEE727A004F022FEA0
:1035D00006F0E6FB05214FF4146005F065FB0AB028
:1035E00070BD00004457313030305F57616B65204B
:1035F0004661696C6564210D0A0000004457313052
:1036000030305F57616B65204F4B210D0A00000081
:103610004457313030302053504920436F6D6D7521
:103620006E6963617465204572726F72210D0A00C4
:103630004457313030302053504920436F6D6D7501
:103640006E6963617465204F4B210D0A0000000014
:103650004457313030305F496E6974204572726F63
:1036600072210D0A000000004457313030305F49AC
:103670006E6974204F4B210D0A00000010B503F055
:10368000BDFA10BD10B506F090FB00200D49086092
:103690004FF4167005F0A8F901200B49C1F890010C
:1036A00002F0D4FF401C10B94FF0FF3010BD05F000
:1036B00072FD0649884201D08817F7E706F070FBD3
:1036C0000020F3E790012142000021423001CADED0
:1036D0002DE9F05F05468A461746002600244FF084
:1036E0000508A146687800287DD100BF0FE0700072
:1036F000001D295C7000C01C285C41EA0020F749CD
:103700000988884201D1BDE8F09F701CC6B2A87834
:10371000B042ECDC0024F1222146641CF048425403
:1037200000222146641C4254EC48008802122146C3
:10373000641CEB484254E94802782146641CE8487E
:10374000425402222146641C4254E6480068020E9C
:103750002146641CE2484254E2480068C0F3074234
:103760002146641CDE484254DE480088C0F307222C
:103770002046611CCCB2DA490A54DA480278204665
:10378000611CCCB2D6490A54D74802782046611C45
:10379000CCB2D3490A540021D1480155002608E093
:1037A000CF48015D805D0844C1B2CD480155701C11
:1037B000C6B2A642F4DB1F21601CC2B21446C84840
:1037C0008154601CC64908390880002081F88700B0
:1037D0004FF4026048800846C78001F0FBFD834635
:1037E000FEF716FE00E01FE0FEF7D4FC642190FB1C
:1037F000F1F201FB120000EB8000012101EB40001F
:103800001FFA80F9484605F0EFF80123002211461F
:10381000B348083802F0F8FC8046B8F1000F02D037
:10382000002002F039FC70E2E878A97840EA012033
:10383000AA490988884200D065E72879022800D083
:1038400061E70024F1222146641CA54842546A78AD
:103850002146641C4254AA782146641C4254EA78EA
:103860002146641C42542A792146641C42546878DB
:10387000F32871D00BDCA0F180000B286DD2DFE8BB
:1038800000F0113233555D657888A3B3ED00F4384C
:103890000B28F3D2DFE800F0FEFDFCFBFAF9F8F7A5
:1038A000F6F5F400687908B9A87928B16879FF2895
:1038B00003D1A879FF2800D125E7A879697940EAE2
:1038C0000120864908800846008802122046611CB3
:1038D000CCB283490A54814802782046611CCCB29C
:1038E0007F490A54ABE1AAE17E480068020E2046F7
:1038F000611CCCB27A490A547A480068C0F3074286
:103900002046611CCCB276490A5476480088C0F340
:1039100007222046611CCCB271490A5471480278D2
:103920002046611CCCB26E490A5488E16E48027888
:103930002046611CCCB26A490A5480E16B48827906
:103940002046611CCCB266490A5478E1687928B1F6
:103950006879012802D0D6E665E16FE168796349AC
:103960008871084682792046611CCCB25C490A54B1
:1039700065E15E48808802122046611CCCB258493D
:103980000A545A4802792046611CCCB254490A5460
:1039900055E1687910B9A87900B9B4E6A8796979D0
:1039A00040EA01205149888008468088021220465A
:1039B000611CCCB24A490A544C4802792046611C29
:1039C000CCB247490A543AE148484088021220469E
:1039D000611CCCB242490A54444882782046611C9A
:1039E000CCB23F490A542AE1687908B9A87928B1CC
:1039F0006879FF2803D1A879FF2800D183E6A87948
:103A0000697940EA01203949488008464088000B1E
:103A1000498801F4706140EA21103449897801F045
:103A2000F00140EA01103149897801F00F0140EAC4
:103A300001302E490880488805F0A5FC2B484088B5
:103A400002122046611CCCB225490A5427488278CC
:103A50002046611CCCB222490A54F0E049F21050D1
:103A60002249488040F259100880488805F08BFCB4
:103A70001E48408802122046611CCCB218490AE058
:103A800012E019E034E03BE04BE052E077E07EE00A
:103A9000AEE0B5E0BFE00A54144882782046611CCD
:103AA000CCB20F490A54CAE01048C2792046611CC2
:103AB000CCB20B490A54C2E0687918B16879012880
:103AC00000D020E668790949C8710846C2792046C5
:103AD000611CCCB202490A54B1E00000620000202F
:103AE000C8100020044000086000002030100020B2
:103AF0008748027A2046611CCCB286490A549EE06F
:103B0000687918B16879012800D0FCE568798049A6
:103B100008720846027A2046611CCCB27D490A54DC
:103B20008DE07B48427A2046611CCCB279490A5428
:103B300085E0687910B168790A2800DDE3E56879E5
:103B4000734948720846427A2046611CCCB27149DA
:103B50000A546F48407A01280DDB6D48407A0A28E4
:103B600009DC6B48407A401E6B4931F810004FF079
:103B70008041888502E0B420010788855FE06448C1
:103B8000827A2046611CCCB262490A5457E06879B7
:103B9000032800DBB7E568795D4988720846827AB8
:103BA0002046611CCCB25B490A545948807A0228ED
:103BB00008D1002059490870594908700120594915
:103BC000087014E05248407A01280DDB5048407AD2
:103BD0000A2809DC4E48407A401E4F4931F810004F
:103BE0004FF08041888502E0B4200107888526E0F7
:103BF0004748C27A2046611CCCB246490A541EE0AE
:103C000068794349C8720846C27A2046611CCCB222
:103C100040490A5413E03E48027B2046611CCCB266
:103C20003C490A540BE06879394908730846027B1D
:103C30002046611CCCB237490A5400E063E500BF5E
:103C4000002134480155002608E03248015D805DBE
:103C50000844C1B22F480155701CC6B2A642F4DB1D
:103C60001F21601CC2B214462A488154601C294995
:103C700008390880002081F887004FF402604880EE
:103C80000846C78001230022114602F0BDFA804693
:103C9000B8F1000F02D0002002F0FEF96878852804
:103CA0001AD06878872817D06878892814D068785F
:103CB0008A2811D06878FD280ED06878FB280BD0B0
:103CC0006878F92808D06878F72805D06878F5284A
:103CD00002D06878F32805D108220D49124803F074
:103CE00035F812E06878812803D103F041FA00BF6B
:103CF000FEE76878802808D103220C490C4803F0BD
:103D000025F803F035FA00BFFEE700BFFBE4000032
:103D100030100020C8100020DEAC0008DD000020BC
:103D2000DE000020DF00002000F401086200002017
:103D300000F80108704710B50024FFF731F8044679
:103D400034B900F09DF818B903F012FA00BFFEE78D
:103D500010BD000070B5002415480078C8B904F003
:103D600089FB18BB01201249087001F033FB05469E
:103D7000FEF74EFBFEF70EFA642190FBF1F201FB19
:103D80001200C4B2AFF233022146072003F0A4F9B7
:103D90000CE0002006490870072003F0DBF900F072
:103DA0006FF818B903F0E4F900BFFEE770BD00003A
:103DB0005800002010B50121084601F005FE012140
:103DC0001F4801F0B1FA01F0EEFC482004F0CEFDEE
:103DD000FEF7BCFE01F0FEFBFEF710FD01F0A8FBB4
:103DE00002F0EEFE4FF4E13004F0BEF901F0FEFA0D
:103DF00003F030F901F032FC18B912A004F00AFA0D
:103E000002E016A004F006FA40F6FF71022001F06D
:103E1000B5FB01F0C5FBFFF777FB01F095FE04F061
:103E20006FF91548008828B1134800884FF6FF71D4
:103E3000884201D100F032F901201049086010BD1C
:103E4000000430004773656E736F7220496E6974A9
:103E5000204F4B2E2E2E0D0A000000004773656E7A
:103E6000736F7220496E6974204661696C65642EB7
:103E70002E2E0D0A0000000062000020B401214235
:103E800070B5002401252F48008805F07CFAFFF763
:103E9000D9F80446002C4DD12B490860002201219D
:103EA000084601F0BBFE4FF01F31012001F020FE5B
:103EB000FFF79CF940BBFEF7FBFFF8B955202349FB
:103EC000087023480068486022480068886008221B
:103ED000214802F03BFF2148007800061F4A527833
:103EE00000EB02401D4A927800EB02201B4AD27878
:103EF00081180020FFF746FA00250AE01849012042
:103F0000FFF740FA012504E015490120FFF73AFACE
:103F1000012500220121022001F080FE4FF01F3117
:103F2000022001F0E5FD002002F0B6F8012006496C
:103F3000086000E0012549F2105005F024FA2846F7
:103F400070BD000044000020B40121422010002078
:103F5000480000204C00002000FC01085000002018
:103F60001516051910B50F48006848B100BF0D4877
:103F70000068804702210C4801F01EFA0128F6D0A3
:103F8000022000F013F80748006848B102E0054835
:103F9000006880470221044801F00EFA0128F6D09B
:103FA00010BD000014000020000C01400149086011
:103FB0007047000014040140014600200022044B19
:103FC0001B6803EA01020AB1012000E000207047EB
:103FD0000004014030B50146002000224B119B0037
:103FE00003F1E023D3F8003101F01F050124AC40B8
:103FF00003EA04020AB1012000E0002030BD70474E
:104000002125011915160519002123498279002A55
:104010003AD00A46126803689A430B461A600A1D92
:10402000126803689A430B1D1A60027911440A68EA
:1040300003681A430A60184A0832126803689A43F0
:10404000154B08331A601A1D126803689A43124B05
:104050000C331A604279102A0ED11A1F12680368B5
:104060001A430D4B08331A601A1D126803681A436D
:10407000094B0C331A600DE00749427911440A6874
:1040800003681A430A6005E0027911440A6803686C
:104090009A430A6070470000000401401FB54FF0CA
:1040A000000AD34600260020039000274FF0FF08A7
:1040B000814600250024FE490860FE49C1F8B00190
:1040C000FD480078012808D10020FC490870FA4911
:1040D0000870FEF745FEFEF7B7FB01E001F060FA5D
:1040E000F348943800680028F8D00022022101200B
:1040F00001F094FD00221146104601F0E9FF01F0A5
:1041000087FD4FF4026005F03EF94FF4C56005F0FD
:10411000D1F8082004F0EAFD4FF4C560E849888032
:104120004FF4026048804FF01F31012001F0E0FCA5
:1041300001F052FD002001F0AFFFDFF888B301F07D
:1041400049F9824600F09DBF01F02AFA02F088FC8E
:104150008046B8F1FF0F00F07487002003AACDE974
:10416000002003467F22D8490290404602F0A4FC7A
:104170000646042EC0F26287D3480078C12840F07A
:104180005D87701ED049085C1C28F8D14FF00009EB
:10419000002506E0CC48405D484400F0FF09681C5B
:1041A000C5B2B01EA842F5DCC749085C4845E6D157
:1041B000DFF818B301F00EF98246C3484078F328BF
:1041C00000F0FA861DDC86287DD00FDC83287BD0AA
:1041D00007DC002864D0812877D0822840F02C8723
:1041E000EDE0842872D08528F8D1E1E187380528F0
:1041F00080F02287DFE810F06602AD0204034B0373
:10420000C803F4380C28F3D2DFE810F09A065A06F7
:104210001E06D9059D054C051005C8048C044404F0
:1042200008040C00A8488078022801D000F005BFDF
:104230000024D1222146641CA14808304254FF22A8
:104240002146641C425402222146641C425400212F
:10425000015500250AE09A480830015D405D084498
:10426000C1B2974808300155681CC5B2A542F2DBBF
:104270001D21601CC2B21446914808308154601C54
:104280008F490880002081F88700BDF80C00C880A5
:1042900000231A4619468A4801F0B6FF02F068FF6B
:1042A0000024D1222146641C854808304254002253
:1042B0002146641C425402222146641C42540021BF
:1042C000015500250EE0B2E1B3E024E012E17C48A4
:1042D0000830015D405D0844C1B27948083001559D
:1042E000681CC5B2A542F2DB1D21601CC2B2144697
:1042F000734808308154601C71490880002081F89F
:104300008700BDF80C00C88000231A4619466C4887
:1043100001F07AFF8AE70024D1222146641C684814
:104320000830425481222146641C42546848006887
:10433000020E2146641C62480830425464480068FA
:10434000C0F307422146641C5D480830425460486F
:104350000088C0F307222146641C594808304254A3
:104360005B4802782146641C5548083042540021BD
:10437000015500250AE052480830015D405D0844BF
:10438000C1B24F4808300155681CC5B2A542F2DBE6
:104390001D21601CC2B21446494808308154601C7B
:1043A00047490880002081F88700BDF80C00C880CC
:1043B00000231A461946424801F026FF36E700243A
:1043C000D1222146641C3E480830425482222146B4
:1043D000641C42543F4802782146641C3848083027
:1043E00042540021015500250AE035480830015D9E
:1043F000405D0844C1B2324808300155681CC5B25E
:10440000A542F2DB1D21601CC2B214462C480830C4
:104410008154601C2A490880002081F88700BDF87B
:104420000C00C88000231A461946254801F0ECFE0E
:10443000FCE603222849294802F07BFC0024D12213
:104440002146641C1E480830425483222146641CC5
:1044500042542148008802122146641C1848083042
:1044600042541D4802782146641C154808304254C5
:104470000021015500250AE011480830015D405D2A
:104480000844C1B20E4808300155681CC5B2A542A7
:10449000F2DB1D21601CC2B2144609480830815469
:1044A000601C07490880002081F8870018E00000A0
:1044B000B401214200002142CB000020DC0000209A
:1044C000C0100020400D030040100020C02709004C
:1044D00004400008600000206200002000F801088D
:1044E000BDF80C00C88000231A461946FE4801F0AA
:1044F0008BFE9BE6FD48807810B9FC48C07838B147
:10450000FA488078FF2804D1F848C078FF2800D105
:104510008CE6F648C078F549897840EA0120F449EC
:1045200008800024D1222146641CEF480830425400
:1045300084222146641C4254ED4800880212214620
:10454000641CE94808304254E94802782146641C5A
:10455000E548083042540021015500250AE0E248B0
:104560000830015D405D0844C1B2DF4808300155A4
:10457000681CC5B2A542F2DB1D21601CC2B2144604
:10458000D94808308154601CD7490880002081F840
:104590008700BDF80C00C88000231A461946D2488F
:1045A00001F032FE0322D249D24802F0CFFB3DE6B1
:1045B0000822D149D14802F0BCFB0024D122214677
:1045C000641CC9480830425485222146641C425468
:1045D000C94882792146641CC348083042540021EE
:1045E000015500250AE0C0480830015D405D0844DF
:1045F000C1B2BD4808300155681CC5B2A542F2DB06
:104600001D21601CC2B21446B74808308154601C9A
:10461000B5490880002081F88700BDF80C00C880EB
:1046200000231A461946B04801F0EEFDFEE5AF48FA
:10463000807820B1AD488078012800D0F6E5AB48FD
:104640008078AD4988710024D1222146641CA64897
:104650000830425486222146641C4254A64882797E
:104660002146641CA0480830425400210155002511
:104670000AE09D480830015D405D0844C1B29A4897
:1046800008300155681CC5B2A542F2DB1D21601C33
:10469000C2B21446944808308154601C9249088084
:1046A000002081F88700BDF80C00C88000231A465E
:1046B00019468D4801F0A8FD08228F498F4802F065
:1046C00045FBB3E508228C498C4802F032FB0024FC
:1046D000D1222146641C8448083042548722214656
:1046E000641C42548448808802122146641C7E481F
:1046F00008304254804802792146641C7A480830C8
:1047000042540021015500250AE077480830015D38
:10471000405D0844C1B2744808300155681CC5B2F8
:10472000A542F2DB1D21601CC2B214466E4808305F
:104730008154601C6C490880002081F88700BDF816
:104740000C00C88000231A461946674801F05CFD3A
:104750006CE56648C0786549897800EB012000B9AE
:1047600064E56248C0786149897800EB01206249BC
:1047700088800024D1222146641C5B4808304254C2
:1047800088222146641C42545B48808802122146DC
:10479000641C554808304254574802792146641C2D
:1047A0005148083042540021015500250AE04E4886
:1047B0000830015D405D0844C1B24B4808300155E6
:1047C000681CC5B2A542F2DB1D21601CC2B21446B2
:1047D000454808308154601C43490880002081F816
:1047E0008700BDF80C00C88000231A4619463E48D1
:1047F00001F00AFD08224049404802F0A7FA15E5F9
:1048000008223D493D4802F094FA0024D122214675
:10481000641C35480830425489222146641C4254A5
:104820003548408802122146641C2F480830425403
:10483000314882782146641C2B48083042540021BC
:10484000015500250AE028480830015D405D084414
:10485000C1B2254808300155681CC5B2A542F2DB3B
:104860001D21601CC2B214461F4808308154601CD0
:104870001D490880002081F88700BDF80C00C88021
:1048800000231A461946184801F0BEFCD5E3174824
:10489000807810B91548C07838B114488078FF285E
:1048A00004D11248C078FF2800D1C6E30F48C07871
:1048B0000E49897800EB01200F494880084640885E
:1048C000000B498801F4706140EA21100A49897897
:1048D00001F0F00140EA01100749897801F00F0169
:1048E00040EA013004490BE0C010002040100020D5
:1048F0006200002000F801083010002000F40108D8
:1049000008800024D1222146641CFE4842548A2299
:104910002146641C4254FC48408802122146641C13
:10492000F8484254F84882782146641CF5484254BD
:1049300000210155002508E0F248015D405D084472
:10494000C1B2F0480155681CC5B2A542F4DB1D2177
:10495000601CC2B21446EB488154601CE949083916
:104960000880002081F88700BDF80C00C880002373
:104970001A461946E348083801F046FC0822E24985
:10498000E24802F0E3F958E349F21050DE4948806A
:1049900040F2591008800024D1222146641CD948D5
:1049A00042548B222146641C4254D748408802124C
:1049B0002146641CD3484254D34882782146641C63
:1049C000D048425400210155002508E0CD48015D42
:1049D000405D0844C1B2CB480155681CC5B2A54230
:1049E000F4DB1D21601CC2B21446C6488154601C11
:1049F000C44908390880002081F88700BDF80C0000
:104A0000C88000231A461946BE48083801F0FCFB4E
:104A10000822BD49BD4802F099F90EE30822BA49BF
:104A2000BA4802F086F90024D1222146641CB54818
:104A30004254FE222146641C4254B348C2792146A6
:104A4000641CB048425400210155002508E0AD48DF
:104A5000015D405D0844C1B2AA480155681CC5B259
:104A6000A542F4DB1D21601CC2B21446A548815446
:104A7000601CA44908390880002081F88700BDF82F
:104A80000C00C88000231A4619469E48083801F0D9
:104A9000BBFBD2E29E48807820B19D4880780128F7
:104AA00000D0CAE29A4880789749C8710024D12280
:104AB0002146641C93484254FD222146641C425402
:104AC0009148C2792146641C8E4842540021015508
:104AD000002508E08B48015D405D0844C1B289486B
:104AE0000155681CC5B2A542F4DB1D21601CC2B291
:104AF000144684488154601C82490839088000208B
:104B000081F88700BDF80C00C88000231A461946BA
:104B10007C48083801F078FB08227B497B4802F08A
:104B200015F98AE208227849784802F002F900244F
:104B3000D1222146641C73484254FC222146641C45
:104B400042547148027A2146641C6E484254002146
:104B50000155002508E06B48015D405D0844C1B285
:104B600068480155681CC5B2A542F4DB1D21601CD4
:104B7000C2B2144663488154601C624908390880F7
:104B8000002081F88700BDF80C00C88000231A4679
:104B900019465C48083801F037FB4EE25C488078E3
:104BA00020B15B488078012800D046E258488078E0
:104BB000554908720024D1222146641C51484254B0
:104BC000FB222146641C42544F48027A2146641C51
:104BD0004C48425400210155002508E04948015D38
:104BE000405D0844C1B247480155681CC5B2A542A2
:104BF000F4DB1D21601CC2B2144642488154601C83
:104C0000404908390880002081F88700BDF80C0071
:104C1000C88000231A4619463A48083801F0F4FAC9
:104C200008223949394802F091F806E2082236494B
:104C3000364802F07EF80024D1222146641C314817
:104C40004254FA222146641C42542F48427A21469B
:104C5000641C2C48425400210155002508E02948D5
:104C6000015D405D0844C1B226480155681CC5B2CB
:104C7000A542F4DB1D21601CC2B2144621488154B8
:104C8000601C204908390880002081F88700BDF8A1
:104C90000C00C88000231A4619461A48083801F04B
:104CA000B3FACAE11A48807818B1194880780A28FE
:104CB00000DDC2E116488078134948720024D122F1
:104CC0002146641C0F484254F9222146641C425478
:104CD0000D48427A2146641C0A484254002101557D
:104CE000002508E00748015D405D0844C1B2054861
:104CF0000155681CC5B2A542F4DB1D21601CC2B27F
:104D0000144607E0C81000203010002000F401080D
:104D100040100020E1488154601CE04908390880B7
:104D2000002081F88700BDF80C00C88000231A46D7
:104D30001946DA48083801F067FA0822D849D948F4
:104D400002F004F879E10822D549D64801F0F1FFD4
:104D50000024D1222146641CD0484254F822214626
:104D6000641C4254CE48827A2146641CCB4842548B
:104D700000210155002508E0C848015D405D084458
:104D8000C1B2C6480155681CC5B2A542F4DB1D215D
:104D9000601CC2B21446C1488154601CBF49083926
:104DA0000880002081F88700BDF80C00C88000232F
:104DB0001A461946B948083801F026FA3DE1BA48C2
:104DC0008078032800DB38E1B7488078B4498872DE
:104DD0000024D1222146641CB0484254F7222146C7
:104DE000641C4254AE48827A2146641CAB4842544B
:104DF00000210155002508E0A848015D405D0844F8
:104E0000C1B2A6480155681CC5B2A542F4DB1D21FC
:104E1000601CC2B21446A1488154601C9F490839E5
:104E20000880002081F88700BDF80C00C8800023AE
:104E30001A4619469948083801F0E6F908229849B7
:104E4000984801F083FFF8E008229549954801F061
:104E500070FF0024D1222146641C90484254F6225F
:104E60002146641C42548E48C27A2146641C8B48F9
:104E7000425400210155002508E08848015D405D4D
:104E80000844C1B285480155681CC5B2A542F4DB8F
:104E90001D21601CC2B2144680488154601C7F49A9
:104EA00008390880002081F88700BDF80C00C88010
:104EB00000231A4619467948083801F0A5F9BCE0E4
:104EC000794880787649C8720024D1222146641C32
:104ED00072484254F5222146641C42547048C27AFA
:104EE0002146641C6D48425400210155002508E00C
:104EF0006A48015D405D0844C1B268480155681CBC
:104F0000C5B2A542F4DB1D21601CC2B21446634841
:104F10008154601C614908390880002081F88700AD
:104F2000BDF80C00C88000231A4619465B480838B3
:104F300001F06AF908225A495A4801F007FF7CE05B
:104F400008225749574801F0F4FE0024D122214697
:104F5000641C52484254F4222146641C4254504876
:104F6000027B2146641C4D48425400210155002516
:104F700008E04A48015D405D0844C1B24748015518
:104F8000681CC5B2A542F4DB1D21601CC2B21446E8
:104F900042488154601C414908390880002081F84A
:104FA0008700BDF80C00C88000231A4619463B480C
:104FB000083801F029F940E03B4880783849087307
:104FC0000024D1222146641C34484254F322214655
:104FD000641C42543248027B2146641C2F484254D0
:104FE00000210155002508E02C48015D405D084482
:104FF000C1B22A480155681CC5B2A542F4DB1D2187
:10500000601CC2B2144625488154601C23490839EB
:105010000880002081F88700BDF80C00C8800023BC
:105020001A4619461D48083801F0EEF808221C49B6
:105030001C4801F08BFE00E000BF00BF002001F023
:105040002BF81A48006858B9142003F0AFFC174831
:10505000006828B9002015499431086002F088F8EA
:10506000781C87B24CF2503087420ADD00270F4887
:105070009430006808B9012000E000200B49943109
:10508000086000F0A7F9A0EB0A005845FFF45CA8FF
:10509000002006499431086002F06AF8C810002028
:1050A0003010002000F401084010002020012142AF
:1050B0000149C860704700000020024030B5044636
:1050C00004254FF4302000F06FF80546042D17D169
:1050D0000C48006940F002000A4908610846446132
:1050E000006940F0400008614FF4302000F05CF8A7
:1050F00005460448006941F6FD7108400149086110
:10510000284630BD0020024004200B49C96801F048
:10511000010109B101200EE00749C96801F004014D
:1051200009B1022007E00449C96801F0100109B182
:10513000032000E00420704700200240034800697B
:1051400040F08000014908617047000000200240E3
:1051500070B504460D460426F00200F025F8064618
:10516000042E11D10948006940F001000749086187
:105170002580F00200F018F806460448006941F660
:10518000FE71084001490861304670BD00200240B0
:105190000248034948600348486070472301674557
:1051A00000200240AB89EFCD00B502460423FFF793
:1051B000ABFF034603E0FFF7A7FF0346521E012B98
:1051C00001D1002AF7D102B90523184600BD00001D
:1051D00030B500228B071C0F0F2303FA04F20B4B90
:1051E0008C1053F824309343084C8D1044F825302C
:1051F00023468C1053F824308C07240F00FA04F453
:105200002343024C8D1044F8253030BD0800014086
:105210002DE9F0410246002500260020002300244D
:10522000002791F803C00CF00F0591F803C00CF0B3
:10523000100CBCF1000F03D091F802C04CEA050538
:1052400091F800C0BCF1000F31D0146800202BE0B1
:105250004FF0010C0CFA00F3B1F800C00CEA0306A1
:105260009E4220D183004FF00F0C0CFA03F7BC4391
:1052700005FA03FC4CEA040491F803C0BCF1280FC2
:1052800006D14FF0010C0CFA00FCC2F814C00AE081
:1052900091F803C0BCF1480F05D14FF0010C0CFA96
:1052A00000FCC2F810C0401C0828D1D31460B1F82B
:1052B00000C0BCF1FF0F34DD546800202EE000F187
:1052C000080C4FF0010808FA0CF3B1F800C00CEA22
:1052D00003069E4221D183004FF00F0C0CFA03F716
:1052E000BC4305FA03FC4CEA040491F803C0BCF18A
:1052F000280F05D100F1080C08FA0CF8C2F8148048
:1053000091F803C0BCF1480F07D100F1080C4FF031
:10531000010808FA0CF8C2F81080401C0828CED307
:105320005460BDE8F0810000F0B50A460023002477
:105330000021002500F00046B6F1004F02D11D4EBD
:10534000F16901E01B4E7168C0F3034583B200F4BC
:105350004016B6F5401F08D121F07061154E7668F1
:1053600026F07066134F7E6012E000F48016B6F5EA
:10537000801F06D1032606FA05F4A14341F07061AF
:1053800006E0460D360103FA06F6B14341F07061BE
:1053900022B1460D360103FA06F6314300F000460D
:1053A000B6F1004F02D1034EF16101E0014E716090
:1053B000F0BD0000000001400246002093680B4051
:1053C0000BB1012000E0002070474161704701618E
:1053D000704700000148006870470000400000204E
:1053E0000120014908607047B401214208B501213C
:1053F000082000F0E9FA4FF40050ADF80000482012
:105400008DF8030069463E48FFF702FF4FF48040E5
:10541000ADF8000048208DF8030069463848FFF7D2
:10542000F7FE4FF40040ADF8000048208DF803006F
:1054300069463348FFF7ECFE32A002F0EBFE32A0E3
:1054400002F0E8FE00203549087035480068012860
:1054500009D134A002F0DEFE304800784006000E8C
:105460002E4908700DE030A002F0D4FE2B480078E1
:105470004006000E294908700846007840F00100F7
:1054800008702748001F0068012809D125A002F0F4
:10549000C1FE224800784006000E204908700DE049
:1054A00021A002F0B7FE1D4800784006000E1B49FF
:1054B00008700846007840F0010008701848083865
:1054C0000068012809D117A002F0A4FE1348007853
:1054D0004006000E114908700DE013A002F09AFE7C
:1054E0000E4800784006000E0C4908700846007807
:1054F00040F00100087003A002F08CFE08BD00001F
:10550000000C01400D0A0000486172645761726529
:105510002056657273696F6E3A20000060000020AB
:105520003C812142300000003100000000BFFEE756
:1055300008B50121082000F047FA1820ADF8000056
:1055400010208DF8030003208DF8020069460648FC
:10555000FFF75EFE08210448FFF739FF10210248DB
:10556000FFF735FF08BD0000000C01404CF6CC40B1
:1055700001490860704700000030004070B50546E2
:105580000C4645F2555000F01FF8284600F010F880
:10559000204600F013F800F003F8FFF7E7FF70BDB6
:1055A0004AF6AA2001490860704700000030004018
:1055B00001494860704700000030004001498860A0
:1055C000704700000030004001490860704700004B
:1055D0000030004008B501210C2000F0F5F94FF42F
:1055E0008050ADF8000010208DF8030003208DF8E6
:1055F000020069461648FFF70BFE002015490860B7
:105600004FF40050ADF8000010208DF80300032087
:105610008DF8020069460E48FFF7FAFD00200E499A
:10562000C1F8B0010120ADF8000028208DF803007A
:1056300069460748FFF7ECFD4FF48070ADF80000B5
:1056400048208DF8030069460148FFF7E1FD08BDD9
:1056500000080140B40121420000214208B50020A9
:10566000009000F051F80A2003F0A0F901236A46E7
:105670000F21302000F0A4FF012800D108BD9DF8C3
:105680000000332801D00120F8E79020009001238A
:105690006A461E21302003F02FF8012800D1EDE7E3
:1056A0000020009001236A462321302003F024F8D3
:1056B000012800D1E2E70820009001236A46242156
:1056C000302003F019F8012800D1D7E72A200090F4
:1056D00001236A463021084603F00EF8012800D164
:1056E000CCE74620009001236A463221302003F0A7
:1056F00003F8012800D1C1E700F044F808B1012007
:10570000BCE70020BAE7000008B50121082000F03E
:105710005BF94020ADF8000010208DF80300032055
:105720008DF8020069461448FFF772FD0120134905
:1057300008608020ADF8000010208DF803000320E1
:105740008DF8020069460C48FFF762FD01200C4904
:10575000C1F89C012020ADF8000010208DF8030056
:1057600003208DF8020069460348FFF751FD002031
:105770000249091F086008BD000C014098812142C0
:105780000080214208B500200090009001236A4665
:105790002021302002F0B0FF012800D108BD0020F8
:1057A000FCE700BFFEE710B54FF4407000F0A8F82A
:1057B00010BD1CB50720FEF70DFC044614B10720F0
:1057C00000F018F80220009000208DF80400082056
:1057D0008DF8050000208DF806006846FEF714FCE1
:1057E0000220FEF7E3FB14B1072000F03BF8002095
:1057F0001CBD000000F01F0201219140024A430934
:1058000042F823107047000080E100E000F01F0222
:1058100001219140024A430942F8231070470000D9
:1058200080E100E01CB50720FEF7D4FB044614B16C
:105830000720FFF7DFFF0220009000208DF8040012
:1058400008208DF8050001208DF806006846FEF757
:10585000DBFB0220FEF7AAFB14B1072000F002F8E0
:1058600000201CBD00F01F0201219140420992005E
:1058700002F1E022C2F80011704700F01F0201217E
:1058800091404209920002F1E022C2F800117047F3
:1058900070B5002100230F22C47804B3154C24688E
:1058A00004F4E064C4F5E064210AC1F10403CA40D1
:1058B000447804FA03F184781440214309010E4C22
:1058C0000678A155047804F01F050124AC40057842
:1058D0006D11AD0005F1E025C5F8004109E004783F
:1058E00004F01F050124AC40044D0678761145F8FC
:1058F000264070BD0CED00E000E400E080E100E037
:1059000002490143024A1160704700000000FA0595
:105910000CED00E0024A0A400243024B1A60704755
:1059200080FFFF1F08ED00E07047000010B5002465
:1059300000BF23E0134800EB0410007A01281BD1BC
:10594000FFF748FD0F4901EB04110968401A0D49A2
:1059500001EB0411496888420ED30020094901EB8C
:1059600004110872074800EB0410C06820B1054913
:1059700001EB0411C8688047601CC4B2082CD9DB55
:1059800010BD0000A00F002029B1064AD2690243D1
:10599000044BDA6104E0034AD2698243014BDA61C5
:1059A000704700000010024029B1064A1269024304
:1059B000044B1A6104E0034A12698243014B1A61E5
:1059C000704700000010024029B1064A9269024364
:1059D000044B9A6104E0034A92698243014B9A6145
:1059E000704700000010024029B1064AD268024305
:1059F000044BDA6004E0034AD2688243014BDA6068
:105A0000704700000010024030B500210022002441
:105A100000232D4D6D6805F00C0121B1042905D03E
:105A2000082923D105E0294D056022E0274D0560B6
:105A30001FE0254D6D6805F47012234D6D6805F467
:105A40008034022505EB92421CB9214D5543056077
:105A50000BE01D4D6D6805F400351DB11C4D55431F
:105A6000056002E0194D5543056002E0174D0560E1
:105A700000BF00BF144D6D6805F0F0010909154D18
:105A80006B5C0568DD4045600F4D6D6805F4E061B5
:105A9000090A104D6B5C4568DD4085600A4D6D68F4
:105AA00005F46051C90A0B4D6B5C4568DD40C5606B
:105AB000054D6D6805F44041890B074D6B5CC56869
:105AC000B5FBF3F5056130BD0010024000127A000D
:105AD00000093D00E6000020F600002001460020FD
:105AE000002902DA4A4290B200E088B27047000012
:105AF00070B504460D460026012C01D1C92614E0DC
:105B0000022C01D1C22610E0032C01D1C5260CE0E5
:105B1000042C01D1952608E0052C01D1C02604E013
:105B2000072C01D1932600E070BD03480670456044
:105B300003F0CEF800BFF7E71800002010B5FFF71C
:105B400038FE03F0F3F810BD10B500220121022049
:105B500000F064F84FF01F310220FFF7C9FF002268
:105B60001146104600F0B4FA44F26E0003F025FC32
:105B700044F26E0003F02AFC1449488803F003FC49
:105B80001349088803F096FB082003F0AFF810488B
:105B900000881049888000220221A12000F0F6FA36
:105BA00001221146A12000F0F1FA0121A12000F00C
:105BB000BBFA0221A12000F0B7FA00F029F800F0AA
:105BC00019F8002000F068FA10BD00003010002025
:105BD00062000020C010002010B5002004490870A9
:105BE00000F046FA002003F07DFB03F05DFC10BDE1
:105BF0003A00002010B501200449087000F038FA7E
:105C0000012003F06FFB03F04FFC10BD3A000020B1
:105C10000120014908707047380000202DE9F04745
:105C200004460D4616460027B846B946012C0CD04E
:105C3000022C0AD0032C08D0042C06D0052C04D04A
:105C4000072C02D00220BDE8F0872DB1012D03D032
:105C5000022D01D00220F6E71EB900203E4908724D
:105C600002E003203C490872012C05D0022C03D02D
:105C7000032C01D0052C1BD137480470012C04D112
:105C800009203549487108711FE0022C04D10A200F
:105C900031494871087118E0032C04D10B202E49BA
:105CA0004871087111E00C202B49487108710CE013
:105CB00029480470042C04D1112027494871087127
:105CC00003E0122024494871087175B90020224967
:105CD000C871082088700220C870012088714FF0B8
:105CE000400920274FF480681FE0012D0DD10120CD
:105CF0001949C871242088700120C87088714FF03C
:105D0000400910274FF480780FE0022D0DD10220BA
:105D10001149C871042088700020C8700120887162
:105D20004FF0400908274FF0400808F101004844AF
:105D3000C01B09494881FFF701FF00F099F90648A7
:105D400002F070FE04488078042803D102494878A4
:105D500002F094FF002076E7200000202DE9F04FAC
:105D6000C1B0054600260027B146002040903F9074
:105D70003E9082463D903C903B903A903990202155
:105D800031A8FCF7A8FB402121A8FCF7A4FB2021A7
:105D900019A8FCF7A0FB002018901790169044213A
:105DA00005A8FCF798FB0024A046002004900521DC
:105DB000152003F0ABF982464FEAAA103C903C98BC
:105DC00068800021122003F0A1F9189040F6060126
:105DD0002E2003F0C3F900F01F001790179804F06D
:105DE000EFFC0290189804F0EBFC0190029904F08B
:105DF0002FFD8346974904F02BFD039004F0C0FC6F
:105E000080B216903C980F384FF6FF7101EA80027D
:105E1000412105A803F0AEF900BF1EE0A0064FEA3D
:105E2000106808F1010005A9095C401C05AA105C76
:105E300001EB002000B221A921F8240008F10300A1
:105E400005A9095C401C105C01EB002000B221A9EF
:105E500001EB84014880601CC4B2102CDEDB0024FE
:105E600035E021A931F92400FFF738FE834621A946
:105E700001EB8401B1F90200FFF730FE834512DD2A
:105E800021A931F92400FFF729FE834621A901EB5E
:105E90008401B1F90200FFF721FE0BEBA00031A94C
:105EA00021F8140011E021A901EB8401B1F90200ED
:105EB000FFF714FE834621A931F92400FFF70EFEF7
:105EC0000BEBA00031A921F81400601CC4B2102C07
:105ED000C7DB00240CE031A9601C31F8100031F858
:105EE0001410401A00B219A921F81400601CC4B2A1
:105EF0000F2CF0DB002416E019A830F9140000285C
:105F00000FDD19A9601C31F91000002809DA31A948
:105F1000601C31F810101698814202DD01200490B7
:105F200003E0601CC4B20E2CE6DB00BF049801281D
:105F300002D16420287189E00721152003F0E6F8DA
:105F400006460221122003F0E1F807460421122040
:105F500003F0DCF88146BE4203DB4E4501DB409690
:105F600007E0B74203DB4F4501DB409701E0CDF886
:105F7000009141F202012E2003F0C8F83F903F98B3
:105F800004F01EFC8346409804F01AFC5946039026
:105F900004F034FB3E9030493E9804F025FD02D8D1
:105FA0000020287152E0504604F00AFC83464FF06E
:105FB000725104F04DFC3D904FF480512E2003F0BF
:105FC000A5F83B903B9804F0FBFB01903D9904F051
:105FD0003DFD834604F078FA21F00041CDE902014D
:105FE00003F02EFF3A901D493A9804F0FDFB02D8C9
:105FF000002028712AE01A493A9804F0F5FB23D2D0
:1060000016493A9804F0F0FC1ED216483A9904F06A
:106010001FFC39901449399804F0E6FB02D20020A5
:10602000287113E01049399804F010FD0F490390CE
:1060300004F00EFC834604F0A3FB28712879642841
:1060400004DD6420287101E064202871002041B043
:10605000BDE8F08F9A99193F6666663F3333534027
:106060000000C0406397C83EAF99A83F0000C842F7
:10607000002000BF0BE0002100EB800202EB401289
:10608000044B03EB820282F88710411CC8B20A2835
:10609000F1DB70470805002070B50446002502209A
:1060A000FDF78AFF08B9FFF7BDFB24B9042003F010
:1060B000C7F8054606E0204603F03AF9052003F04C
:1060C000BFF805460DB9002070BD0620FCE70000B2
:1060D00070B506460C4615460B4806600B48056031
:1060E0000B4804600B4803F03BFB0B4B0B4A0C497D
:1060F000002003F0E7F801210A4803F021F9FFF737
:10610000B7FF002070BD00002C00002030000020F0
:1061100034000020898F000815980008799D000838
:106120003198000800D0332410B50246002000BF8B
:106130000DE0144B13F81030934206D1114B03EBD2
:1061400040035B788B4200D110BD431CD8B20E4B8C
:106150001B789842EDDB0C4B1B780A2B00DBF3E736
:10616000084B094C247803F81420074C247803EBDF
:1061700044035970044B1B785B1C034C237000BF15
:10618000E2E70000760B00203C00002030B503461B
:10619000002000BF12E000EB4004194D2C5D9C4232
:1061A0000AD100EB40042C4464788C4204D100EB0B
:1061B00040042C44A27030BD441CE0B2114C247841
:1061C000A042E8DB0F4C24780A2C00DBF3E70D4CEF
:1061D000247804EB44040A4D2B550A4C247804EB34
:1061E00044042C446170074C247804EB44042C4490
:1061F000A270044C2478641C024D2C7000BFDAE7B6
:10620000580B00203B0000202DE9F04704460F46C4
:1062100016461D464FF00009CA46C8466948007830
:1062200030B1208809307D2807DD0220BDE8F087E5
:1062300020887D2801DD0220F8E775B10220FDF7F6
:10624000BBFE08B9FFF7EEFA012D03D1002003F0E1
:10625000A2F802E0284603F09EF85A480078002889
:1062600040D0412058490872882157484172574808
:1062700001785548817255480078401C5349087090
:10628000A1785148C172608801124F480173A17909
:106290004173E08801124C4881732179C173A08851
:1062A000011249480174228804F108011130FCF7F9
:1062B000CDF821880B3188B200224349083103F020
:1062C00069F93EB921880B3188B20022114603F0EA
:1062D00075F926E021880B3188B20122002103F0F4
:1062E0006DF91EE0228804F1080137480830FCF7F8
:1062F000ADF82188891C88B200223349083103F0A7
:1063000049F93EB92188891C88B20022114603F060
:1063100055F906E02188891C88B20122002103F08A
:106320004DF902F003FD65B194F8870020B9022011
:1063300003F084F8824610E0032003F07FF88246E1
:106340000BE094F8870020B9002003F077F882462C
:1063500003E0012003F072F88246BAF1000F2AD15F
:1063600012E000210F2002F0E4FE00F0800010B1E6
:106370004FF0010909E008F101001FFA80F841F22D
:106380007070804500DD00E0EBE700BF8022002157
:106390000F2003F0ADF8B9F1000F05D102F0C6FCF3
:1063A00002F07CFF052041E71FB116B1384602F02C
:1063B0003EFF00203AE702F0B9FC02F06FFF052033
:1063C00034E7000038000020D00A00203E00002002
:1063D0000120114908601149C1F89C01002000BF4B
:1063E00001E0411CC8B20528FBDB00200A49091D59
:1063F000086000BF00BF01E0411CC8B20528FBDBFC
:1064000000200549086000BF00BF01E0411CC8B280
:106410000928FBDB7047000098812142008021425F
:106420002DE9F043ADF5017D80460F4614464FF44B
:10643000007101A8FCF74FF800253E46A94620460A
:1064400004EBD0714910A4EB410121B904EBD071E8
:10645000C1F34F0906E0204604EBD0714910491CF6
:106460001FFA81F94A4601A9404600F062FC002566
:106470000CE001A810F8150006F8010B01A830F88F
:106480001500001206F8010B681C85B204EBD471EC
:10649000B5EB610FEDDB204604EBD0714910A4EBA6
:1064A000410119B101A810F8150030700DF5017DFA
:1064B000BDE8F083002101200E4A1060002000BFDB
:1064C00001E0421CD0B20528FBDB0A487C3800689A
:1064D00008B1012000E0002001460020054A1060BC
:1064E00000BF00BF01E0421CD0B20928FBDB084618
:1064F000704700009881214270B5002400250026D5
:106500000120144908601448006820F0704040F0F1
:1065100000401149086080200F49103108600724AD
:1065200008E0FFF7C7FF064606FA04F02843C5B2A5
:10653000601E04B2002CF4DA0748006820F07040B6
:1065400040F0405004490860002002F007F8E8B22B
:1065500070BD00009C812142000C014070B50024F8
:10656000002500260120144908601448006820F026
:10657000704040F000401149086080200F49103100
:106580000860072408E0FFF795FF064606FA04F0C6
:106590002843C5B2601E04B2002CF4DA0748006834
:1065A00020F0704040F0405004490860012001F0A4
:1065B000D5FFE8B270BD00009C812142000C014073
:1065C0002DE9F05F81468A4616461F4600240125C4
:1065D000A046A3461C48006820F0704040F04050A0
:1065E0001949086000F058FD484602F017F8804647
:1065F00005EA08054AF0800B584602F00FF880467D
:1066000005EA0805FFF7E4FE49F0010B584602F0E1
:1066100005F8804605EA080500BF04E0FFF76CFFB7
:106620003055601CC4B2781EA042F7DC002F02DD9A
:10663000FFF794FF305500F06DFD15B10020BDE867
:10664000F09F0120FBE70000000C014038B500245A
:1066500001210820FFF7B8F90120ADF80000102053
:106660008DF8030003208DF8020069462948FEF7E3
:10667000CFFD01212748FEF7A8FE012003F08AFB89
:106680000120ADF8000004208DF8030003208DF8F0
:10669000020069461F48FEF7BBFD0DE01E4800687A
:1066A000012800D109E0601C84B2B4F5167F00DB3C
:1066B00003E00A2002F098F9F0E700BFB4F5167F76
:1066C00002DB4FF0FF3038BD00240021242002F00F
:1066D00030FD40F004052A460021242002F008FF86
:1066E00007E0601C84B2642C00DB0AE00A2002F0A0
:1066F0007BF92C21282002F01CFD00F0010000286D
:10670000EFD000BF642C02DB4FF0FF30DBE700204E
:10671000D9E70000000C0140008121422DE9FC4135
:1067200000260024A04600200090019000270025AC
:10673000C748007800287DDDC54890F8008000BF7C
:1067400000BF78E1C4EBC400C24901EB800040897E
:10675000002870D0FEF73EFEC4EBC401BD4A02EB38
:1067600081014968401AB0F57A7F10D90020C4EB46
:10677000C40102EB81014881C4EBC40102EB810139
:106780000876B3480078401EB14908704CE1C4EB6C
:10679000C400B04901EB8000007E012855D1FEF70E
:1067A00019FEC4EBC401AB4A52F821108842EDD364
:1067B000FEF710FEC4EBC401A64A52F82110401A9D
:1067C00002282DD2B120A4490872FF21A2484172AB
:1067D000C4EBC400114601EB8000C17D9E4881726C
:1067E0000221C1721B21017305209B4908800020F2
:1067F00081F88700C4EBC400114601EB800040899A
:106800009549C88095484088488001230022114658
:106810009148FFF7F9FC054615B10020FFF73CFC55
:106820000020C4EBC4018B4A02EB81014881C4EB18
:10683000C40101E003E1FCE002EB81010876844839
:106840000078401E82490870EEE0C4EBC400814924
:1068500001EB8000007E022866D1FEF7BBFDC4EB91
:10686000C4017C4A52F8211088428FD3FEF7B2FD52
:10687000C4EBC401774A52F82110401A022841D2D1
:10688000B12075490872012173484172C4EBC400FC
:10689000114601EB8000C17D6F4881720221C172F7
:1068A0001B21017305206C490880002081F88700B6
:1068B000C4EBC400114601EB800040896649C880E2
:1068C00066484088488001231A4669466248FFF7B7
:1068D0009BFC05465DB9C4EBC4005E4901EB80003A
:1068E0000099C0F812109DF80410817502E0002094
:1068F000FFF7D2FB0020C4EBC401564A02EB810132
:10690000087691E00020C4EBC401524A02EB8101F9
:106910004881C4EBC40102EB810108764C48007841
:10692000401E4B4908707FE0C4EBC400494901EBAD
:106930008000007E032877D1FEF74CFDC4EBC40134
:10694000444A52F8211088426ED3FEF743FDC4EB4F
:10695000C401404A52F82110401A02285DD2B120E9
:106960003D49087202213C484172C4EBC400114603
:1069700001EB8000C17D384881720221C17200277D
:1069800036488079012801D147F002073248077361
:1069900032488088011230484173304801792E48CE
:1069A0008173C4EBC4002B4901EB80000089011204
:1069B0002948C173C4EBC400264901EB8000017A69
:1069C00025480174002141748174C17401751B2133
:1069D00041750E2020490880002081F88700C4EB13
:1069E000C4001C4901EB800040891B49C8801B483A
:1069F000408848800123002211461748FFF704FC15
:106A0000054615B10020FFF747FB0020C4EBC40189
:106A1000104A02EB8101087606E00020C4EBC401B5
:106A20000C4A02EB81010876701CC6B2464500DBB9
:106A300004E0601CC4B2322CFFF684AE00BFAFF29B
:106A400023320021084600F047FBBDE8FC8100002E
:106A50006A00002048110020C010002030100020E3
:106A600010B50021FF20FF2200BF1FE001EB8103D2
:106A700003EB41130F4C04EB830393F88730012B96
:106A800012D101EB810303EB411304EB830393F871
:106A90008D30934208DA084601EB810303EB411382
:106AA00004EB830393F88D204B1CD9B20A29DDDB5C
:106AB00010BD0000080500202DE9F05F04460E46D9
:106AC00017461D46DDE90B9ADDF828804FF0000BD4
:106AD0000A2C02DB0020BDE8F09F04EB840000EBF1
:106AE0004410344901EB80008088B84207DA04EB97
:106AF000840000EB441001EB8000808800E0384601
:106B0000834604EB840000EB44102A4A02EB800029
:106B100000F108015A463046FBF798FC5DB104EBE2
:106B2000840000EB4410234901EB80008030816831
:106B30002960007B2871B8F1000F0DD01E48007845
:106B4000012809D104EB840000EB4410194901EB42
:106B50008000C088A8F80000B9F1000F11D01748D4
:106B6000007801280DD104EB840000EB441011499A
:106B700001EB800050F88E1FC9F800108088A9F83A
:106B80000400BAF1000F08D004EB840000EB4410BD
:106B9000084951F82000CAF80000002004EB8401E5
:106BA00001EB4411034A02EB810181F8870058464A
:106BB00091E700000805002038000020390000207F
:106BC00008B501210420FEF7FFFE4FF48040ADF828
:106BD000000010208DF8030003208DF802006946A4
:106BE0000548FEF715FB4FF480410348FEF7EDFB27
:106BF00001F030FA08BD00000008014000B587B080
:106C000001210420FEF7E0FE01210803FEF7DCFE6F
:106C1000E020ADF8180018208DF81B0003208DF837
:106C20001A0006A91A48FEF7F3FA1020ADF818006A
:106C30008DF81B0006A91648FEF7EAFA1021144841
:106C4000FEF7C5FB0020ADF804004FF48270ADF8EC
:106C500006000020ADF80800ADF80A00ADF80C0001
:106C60004FF40070ADF80E002820ADF810000020A1
:106C7000ADF812000720ADF8140001A9054800F096
:106C80003AF80121034800F021F807B000BD0000E8
:106C9000000801400030014010B504460748008854
:106CA0004FF6C77108400549088008460088204310
:106CB00008800121014800F009F810BD00300140B2
:106CC00010B50446E0B2FFF7E7FF10BD21B102881E
:106CD00042F04002028004E002884FF6BF731A407F
:106CE000028070470246002013890B400BB101203F
:106CF00000E00020704710B50022028802F44152E3
:106D00000B884C8823438C882343CC8823430C89ED
:106D100023434C8923438C892343CC8923431A433F
:106D20000280838B4FF2FF74234083830B8A03829C
:106D300010BD10B5002300BF05E0048821F8024B08
:106D4000801C5C1CA3B29342F7DB10BD2DE9F05F01
:106D50008046894616464FF0000B0027BA460024AD
:106D60000025B8F1006F02D33548804501D3BDE856
:106D7000F09FA8F1006BCBF38F27CBF3480ACAF53D
:106D80000074A64200DC3446FEF702FA3520FEF716
:106D90008FF94FE04FF0006101EB87208A142949F9
:106DA000FFF7C7FF00250BE00AEB0500254931F886
:106DB00010004FF6FF71884200D003E0681C85B2D6
:106DC000A542F1DB00BFA5421BDA4FF0006101EBE9
:106DD0008720FEF773F9002508E039F815000AEB63
:106DE0000501184A22F81100681C85B2A542F4DB9F
:106DF0004FF0006101EB87208A14124900F024F85B
:106E000004E022464946404600F01EF8A64200D162
:106E100011E0301B86B2781C87B24FF0000A08EBF5
:106E2000440809EB4409B6F5007F02DD4FF4007415
:106E300000E03446AEE700BFFEF780F900BF96E7FA
:106E4000000002089E0B00202DE9F04105460C468B
:106E50001746002600BF07E034F8021B2846FEF75D
:106E600077F9AD1C701C86B2BE42F5DBBDE8F0813F
:106E70007047000008B537480068B0B93548006869
:106E800018B9012033499031086000203249087058
:106E900032480078401C314908700846007896282E
:106EA0001BDB00200870FDF7F9F82C48007800285B
:106EB00013DD28480068012803D1002025499031BE
:106EC000086025480078401C23490870084600786F
:106ED000052802DB0020214908701E482038006880
:106EE000012823D11E4800780A2804DB1D480078B9
:106EF000401C1C4908701B480078022822DB002037
:106F00001749087017490870009017480378002245
:106F1000FF214FF6FF70FBF7EBFB1348007808B931
:106F2000012000E00020104908700BE000200D490E
:106F300008700B4800780A2804DC09480078401CD7
:106F400007490870AFF2D302C821052000F0C4F849
:106F500008BD000020012142E2000020E1000020E5
:106F6000E4000020E3000020E500002010B500F060
:106F700001F810BD0CB50020019000903348006866
:106F800040F480303149086000BF3048006800F4A8
:106F9000003000900198401C0190009818B90198A9
:106FA000B0F5A06FF1D12948006800F4003010B1AD
:106FB0000120009001E0002000900098012843D1BA
:106FC0002348006840F01000214908600846006826
:106FD00020F0030008600846006840F002000860E6
:106FE0001A484068194948600846406848600846A1
:106FF000406840F4806048600846406820F47C1097
:1070000048600846406840F4E81048600846006858
:1070100040F08070086000BF0C48006800F000700D
:107020000028F9D00948406820F00300074948606B
:107030000846406840F00200486000BF03484068CE
:1070400000F00C000828F9D10CBD0000001002402F
:107050000020024000B58DB034216846FBF73BFAB2
:10706000054806A102686846FBF7CEF8684601F0BD
:10707000D1F80DB000BD000004400008536F6674E5
:10708000576172652056657273696F6E3A202530BC
:1070900038780D0A0000000001200D4908600D49F4
:1070A000C1F89C0100200A49091D086000BF00BF0B
:1070B00001E0411CC8B20528FBDB00200449086040
:1070C00000BF00BF01E0411CC8B20928FBDB7047CC
:1070D000988121420080214270B504460D46164633
:1070E000082C00DB70BD0120094901EB0411087276
:1070F000FEF770F9064901EB04110860044800EB43
:1071000004104560024800EB0410C66000BFE9E7C8
:10711000A00F002000200D49086001200C49C1F893
:10712000980100200949086000BF00BF01E0411C30
:10713000C8B20528FBDB012004490860002000BF1D
:1071400001E0411CC8B20928FBDB70479C81214249
:1071500000802142082800DB70470021024A02EB30
:107160000012117200BFF7E7A00F00207047000067
:10717000012080F3138800BF00BF0748006800F4B7
:10718000E06006490843001D03490860BFF34F8FC4
:1071900000BF00BFFEE700000CED00E00000FA05B4
:1071A00010B51248006840F0010010490860084618
:1071B00040680F4908400D494860084600680D497D
:1071C00008400A4908600846006820F480200860EA
:1071D0000846406820F4FE0048604FF41F008860B5
:1071E000FFF7C4FE04480549086010BD00100240C6
:1071F0000000FFF8FFFFF6FE0020000808ED00E0A9
:1072000010B50121880700F096F8002847D0012129
:10721000880700F078F82748006808B9012000E0E6
:107220000020244908602448807A022840D123485D
:107230000078401C2149087021482249097800EB58
:10724000810040881D490978884231DC00201B49B3
:1072500008701D48007801280CD11A480078401C9D
:10726000184908700846007869280ED10020164990
:1072700008700AE013480078401E1249087008465A
:10728000007810B90120104908700D480D4909789F
:1072900030F82100401E4FF08041888508E0012130
:1072A000880700F03FF818B10121880700F028F89E
:1072B00010BD0000B801214230100020DE00002087
:1072C00036AB0008DD000020DF0000204FF6FE7026
:1072D0000349088003480068401C02490860704761
:1072E000100400404000002021B1028842F08002DA
:1072F000028004E002884FF67F731A4002807047D4
:10730000CA4302827047CA430282704721B1028891
:1073100042F00102028004E002884FF6FE731A4038
:107320000280704702460020138A0B400BB10120F7
:1073300000E00020704730B5024600200023002402
:10734000158A05EA0103958905EA010413B10CB118
:10735000012000E0002030BD1AB183890B438381F6
:1073600002E083898B4383817047000000220288FA
:107370001D4B98420ED01D4B98420BD0B0F1804F60
:1073800008D01B4B984205D01A4B984202D01A4B9A
:10739000984204D14FF68F731A404B881A43174B0B
:1073A000984207D0164B984204D04FF6FF431A403C
:1073B000CB881A4302808B8883850B8803850A4B10
:1073C00098420BD0094B984208D00E4B984205D0FA
:1073D0000D4B984202D00D4B984201D10B7A038697
:1073E0000123838270470000002C014000340140DB
:1073F0000004004000080040000C00400010004065
:107400000014004000400140004401400048014099
:107410002DE9F04F89B000240026002500200790B8
:107420008246834606908146FE48C078012802D0F5
:1074300009B0BDE8F08FFB48007900F0040018B9EE
:10744000F948807900B9F3E7F848008800128DF810
:107450001C00F64800788DF81D000626002512E075
:107460009DF81C00EF49895D884207D19DF81D10E9
:10747000EC4A701C105C814200D108E006F10D005E
:10748000C6B2681CC5B2E7484079A842E8DC00BF34
:10749000E4484079A84200D1CAE7E54800780028CE
:1074A0003CDD0026002431E0C4EBC400E14901EBDF
:1074B0008000408940B3C4EBC40001EB80004089E8
:1074C000DD490988884218D1C4EBC400D94901EBD1
:1074D0008000C07D00F0F000D249897801F0F00111
:1074E00088420AD1C4EBC400D24901EB8000007B82
:1074F000CC49C978884200D10AE0701CC6B2CC4899
:107500000078864200DB03E0601CC4B2322CCBDB87
:1075100000BFC7480078864201DB89E788E755B994
:10752000FDF758FFC5490968401A022800D97FE7CE
:107530004FF0010A19E0FDF74DFFC0490968401AF4
:10754000012101EBC501884200D971E7FDF742FF37
:10755000BA490968401A012101EBC501884202D1EC
:107560004FF0010A01E04FF0020AC4EBC400B14938
:1075700001EB8000407B0023C4EBC401AD4A02EB69
:107580008101897B1A0242EA11620F02384343EA01
:107590000201C4EBC402A74B03EB8202D27B00239F
:1075A0001B0443EA124317040A4640EA070142EA71
:1075B0000300C4EBC4029F4B03EB8202137C002246
:1075C000120642EA132741EA036240EA0701C4EBCC
:1075D000C400984B03EB8000407C01439848C0E90D
:1075E0000021C4EBC400194601EB8000807C00231D
:1075F000C4EBC4018F4A02EB8101CA7C190241EA43
:10760000126117021A460B4640EA070142EA0300DC
:10761000C4EBC402874B03EB8202137D00221204E9
:1076200042EA134241EA03410243C4EBC400814BE6
:1076300003EB8000437D0020000640EA13201F0674
:10764000134641EA070243EA0001C4EBC400794B48
:1076500003EB8000807D01437A48C0E900217A482D
:107660000078002378494A78190241EA126117022A
:107670001A460B4640EA07011A43734883780020F4
:10768000000440EA13401F04134641EA070243EA9C
:1076900000016D48C3780020000640EA132042EA4A
:1076A000036201436848007901436848C0E900214A
:1076B00005EB850000EBC50008305A49085C002343
:1076C00005EB850101EBC5010931564A525C1906EB
:1076D00041EA122117061A460B4642EA070140EA20
:1076E000030205EB850000EBC5000A304D4B1B5C27
:1076F0000020000440EA13401F04134641EA070239
:10770000184305EB850101EBC5010B31454B5B5C73
:107710000021090241EA13611F02034642EA070001
:10772000194305EB850202EBC5020C323D4B9A5C16
:107730001043474A03C205EB850000EBC5000D303E
:107740001946085C002305EB850101EBC5010E31EC
:10775000344A525C190641EA122117061A460B46B2
:1077600042EA070140EA030205EB850000EBC50091
:107770000F302C4B1B5C0020000440EA13401F0418
:10778000134641EA070243EA000105EB850000EBDE
:10779000C5001030234B1B5C0020000240EA136739
:1077A00042EA032041EA070205EB850101EBC5012E
:1077B00011311C4B595C0843264905C12048D0E9CA
:1077C0000010204B0CCB891A98410FD31C48D0E9EC
:1077D00000324FF48070594260EB0200194B0CCB21
:1077E000891858411C4AC2E900100BE01548D0E93D
:1077F00000301349D1E900219A1A60EB01001649C3
:10780000C1E900200F48D0E90030104A06CA591AD1
:1078100090412ED30B48D0E900214FF480705242A2
:107820001CE000004010002030100020620000200A
:107830006A00002048110020700000206C00002029
:1078400078000020800000207200002088000020C6
:107850009000002098000020A000002060EB0100B4
:10786000AC49D1E90031D2184841AB49C1E9002007
:107870000AE0A848D0E90020A84B0ACB511A60EBD7
:107880000300A54AC2E90010A549A34B05C9D3E9E5
:107890000073A0FB071C02FB07C200FB0322A148E8
:1078A000DFF884C288C8DCE90008A3FB00CE07FB30
:1078B00000E003FB0803B1EB0C0172EB030056D3AD
:1078C0009748D0E90010974FD7E900C711EB0C019A
:1078D0007841DFF854C2DCE9007811EB070C40EB8B
:1078E00008008D49D1E900711CEB070241411046A7
:1078F00002F06AFCCDE904018948D0E90010864B0A
:1079000084CB1346A1FB032C00FB03C001FB070340
:107910008448D0E9007C8448D0E90080A7FB081E99
:107920000CFB08EC07FB00C7511A63EB0700CDE91D
:1079300000100846019902F047FCCDE90201DDE99B
:10794000042302F0BBFA794A03C2794A794B77499A
:1079500003C902F0BBFC784A03C24FF09852774B40
:10796000754903C902F0B2FC754A03C203E0002165
:10797000734A1160516000221346714903C902F035
:1079800069FC03D800206F4908800AE000226E4B92
:107990006B4903C902F09AFC074602F0E7FB69490C
:1079A0000880BAF1010F46D1B1206849087202215E
:1079B0006648417266488178644881720221C172CA
:1079C00064488079012801D14BF0020B5F4880F8B0
:1079D0000CB06048808801125C4841735D480179B1
:1079E0005A4881735748008801125848C173554856
:1079F000017856480174002141748174C174017585
:107A00001B2141750E2051490880002081F8870014
:107A100051480088C8804F48408848800123002290
:107A200011464A48FEF7F0FB0690069828B300205E
:107A3000FEF732FB21E0BAF1020F1ED14148008867
:107A4000C4EBC401454A02EB8101088140488078BB
:107A5000C4EBC40102EB8101C8750320C4EBC4016F
:107A600002EB81010876012000EBC5003C49096862
:107A70000844C4EBC40142F8210005EB850000EB8B
:107A8000C5001230324911F800900846C07801282C
:107A90002BD130488079012827D12E488088294968
:107AA0000988884221DBB9F1010F02D0B9F1020F38
:107AB0001BD12448008842F2107148432549898827
:107AC000B0FBF1F087B2C4EBC402244B03EB82029B
:107AD0000097117BC4EBC40203EB8202508901239F
