:020000040800F2
:10200000882D0020C9210008FF3F0008297700081B
:10201000E37900089D380008B1AB0008000000001B
:102020000000000000000000000000009191000886
:10203000DD3F000800000000697B00088D94000867
:10204000E3210008E3210008E3210008E321000860
:10205000E3210008E3210008E3210008795A000881
:10206000E3210008E3210008E3210008E321000840
:10207000E3210008E3210008E3210008E321000830
:10208000E3210008E3210008E3210008E321000820
:10209000E3210008E3210008E3210008E321000810
:1020A000E3210008E3210008E3210008E321000800
:1020B00021950008ED950008E3210008E3210008C0
:1020C000E3210008E3210008E3210008E3210008E0
:1020D000E321000885A80008E3210008E3210008A7
:1020E000E3210008E3210008E321000800F002F8E2
:1020F00000F041F80AA090E8000C82448344AAF161
:102100000107DA4501D100F036F8AFF2090EBAE85E
:102110000F0013F0010F18BFFB1A43F0010318471B
:10212000ACB30000CCB30000103A24BF78C878C12B
:10213000FAD8520724BF30C830C144BF04680C60CD
:10214000704700000023002400250026103A28BF15
:1021500078C1FBD8520728BF30C148BF0B60704719
:10216000782900F08D80002070471FB500F065F9D8
:102170001FBD10B510BD00F0A2FA1146FFF7F5FF24
:1021800009F064FD00F0C0FA03B4FFF7F2FF03BCEE
:1021900000F0CAFA0B49D1F800C04A685CF8043B69
:1021A0001068184442F8040B8C4528BFA1F1DC0CE0
:1021B0008A4228BFA1F1DC02C1F800C04A6020F0C9
:1021C000004070471C190020094880470948004713
:1021D000FEE7FEE7FEE7FEE7FEE7FEE7FEE7FEE7D7
:1021E000FEE7FEE704480549054A064B7047000034
:1021F000C1940008ED20000888190020882D0020D7
:10220000881B0020881B00200FB41CB5074B06AAB2
:102210007B4469460090059800F007FA0020694663
:1022200000F016FA1CBC5DF814FB00003D04000031
:1022300070B5044685690068C10601D5302600E006
:102240002026C00707D070BDD4E901213046904751
:10225000206A401C20626D1EF6D570BD70B5044624
:1022600085690078C00707D170BDD4E9012120201D
:102270009047206A401C20626D1EF6D570BD00009C
:1022800070B504460D4621461068AFF300802188E2
:10229000090502D50F4A7A4402E00E4A7A440E320A
:1022A000002104F1240305E000F00F060009965D0B
:1022B0005E54491C0028F7D120780023000704D57C
:1022C000702D02D009B1022311322046BDE87040C2
:1022D00000F04DB9F8B100002DE9F05F89460446E1
:1022E0004FF0000ADFF824B1FB44C0F820A02046DC
:1022F000E168884700287DD0252806D0D4E901214F
:102300009047206A401C2062F1E700255F46204686
:10231000E16888472028064607DB312E05D2B81928
:1023200010F8200C08B10543F1E7A80701D525F006
:102330000405C4F81CA00027C4F818A02A2E09D050
:10234000304608F00FFE38B304EB8708303EC8F87B
:10235000186019E059F8041B204604EB87029161CC
:10236000E1688847012F064618D1E069002820DA85
:1023700025F020051DE0D8F8180000EB800006EBE2
:1023800040003038C8F818002046E1688847064603
:1023900008F0E8FD0028EED1012F0AD02E2E08D13A
:1023A0002046E16888477F1C0646022F45F020053D
:1023B000C4DBA069002803DA404245F00105A061B2
:1023C000E80701D025F01005A6B1A6F141001928B3
:1023D00002D8203645F400654A463146204625603D
:1023E0004D46FFF7BDFE60B1012807D0ED1D25F079
:1023F000070000E007E000F1080978E705F10409AB
:1024000075E730467AE7206ABDE8F09FCEB100005C
:102410000B4910B5A1F17C020A4CC2E937123721F1
:1024200006E000EB104342F82130074B00FB03406D
:102430000B1EA1F10101F4DC10BD0120E8E7000052
:10244000BC180020E119D666CD0D0100032A40F228
:10245000308010F0030C00F0158011F8013BBCF146
:10246000020F624498BF11F801CB00F8013B38BF5E
:1024700011F8013BA2F1040298BF00F801CB38BF6C
:1024800000F8013B11F0030300F0E780083AC0F0C8
:10249000088051F8043B083A51F804CBA0E8081032
:1024A000F5E7121D5CBF51F8043B40F8043BAFF365
:1024B0000080D20724BF11F8013B11F801CB48BFBF
:1024C00011F8012B24BF00F8013B00F801CB48BFF5
:1024D00000F8012B70474FF000020429C0F0128071
:1024E00010F0030C00F01B80CCF1040CBCF1020FC7
:1024F00018BF00F8012BA8BF20F8022BA1EB0C019C
:1025000000F00DB85FEAC17C24BF00F8012B00F891
:10251000012B48BF00F8012B70474FF0000200B5B7
:10252000134694469646203922BFA0E80C50A0E8F6
:102530000C50B1F12001BFF4F7AF090728BFA0E8A4
:102540000C5048BF0CC05DF804EB890028BF40F870
:10255000042B08BF704748BF20F8022B11F0804FB2
:1025600018BF00F8012B70477047704770472DE97E
:10257000F0470D4699469246044600F1240801684A
:10258000880604D5E06921F01001216000E00120F7
:10259000A84201DD471B00E00027A1697A1902EB80
:1025A0000900081AA0612078C00602D42046FFF76F
:1025B0003FFE002608E0D4E901211AF80600904702
:1025C000206A401C761C20624E45F4DB2078C00651
:1025D0000AD52046FFF72CFE06E0D4E90121302081
:1025E0009047206A401C2062381EA7F10107F4DCE6
:1025F00007E0D4E9012118F805009047206A401C43
:102600002062281EA5F10105F3DC2046FFF726FE17
:102610002078000602D50220BDE8F0870120FBE704
:1026200001694A1C02610878704700B58FB0CDE996
:1026300001310021059105497944CDE90310114686
:102640006846FFF749FE0FB000BD0000E5FFFFFF41
:102650000A6802F8010B0A60704710B5203AC0F012
:102660000B80B1E81850203AA0E81850B1E8185093
:10267000A0E81850BFF4F5AF5FEA027C24BFB1E8D0
:102680001850A0E8185044BF18C918C0BDE8104041
:102690005FEA827C24BF51F8043B40F8043B08BF4A
:1026A0007047D20728BF31F8023B48BF11F8012B11
:1026B00028BF20F8023B48BF00F8012B7047754641
:1026C00000F02CF8AE4605006946534620F007009E
:1026D000854618B020B5FFF785FDBDE820404FF0D6
:1026E00000064FF000074FF000084FF0000B21F0FC
:1026F0000701AC46ACE8C009ACE8C009ACE8C009C9
:10270000ACE8C0098D46704710B50446AFF30080B1
:102710002046BDE81040FFF737BD00000048704775
:10272000241900207047000001491820ABBEFEE7C5
:10273000260002002DE9F14F8AB000BF00BF00BFA4
:1027400000BF00BF0020059004908346824603909E
:1027500002900520019005F021F80A9858BB00BFAF
:1027600014E00BEB4B00FE4931F8300050B10BEB9D
:102770004B0001EBC000807D012803D10398401C71
:10278000C0B203900BF1010000F0FF0BBBF1030F8F
:10279000E7DBF448008B40B1F24890F82E000128A6
:1027A00003D10398401CC0B20390039888BB01205A
:1027B0000BB0BDE8F08F4FF0000B23E00BEB4B00AC
:1027C000E74931F83000C8B10BEB4B0001EBC0001A
:1027D000407C012806D00BEB4B0001EBC000407C95
:1027E00002280BD10BEB4B00DD4901EBC000807DD3
:1027F000012803D10398401CC0B203900BF10100E3
:1028000000F0FF0BBBF1030FD8DB039808B90120E0
:10281000CEE7FFE709F037F84FF4C342039902FB14
:102820000100D14908440590059809F0B3F80598CE
:1028300020F001000021090241EA10610002CDE907
:10284000080144F26E02DDE908C01CEB020140F110
:102850000000CDE90810C548007800F00F0B0BF11F
:10286000010B0BF00F0BC148007800F0F00040EABC
:102870000B00BE4908704FF0000AA12251460AF130
:10288000010ABB484254022251460AF1010A42544D
:10289000B648027851460AF1010AB548425401226D
:1028A00051460AF1010A4254B248C07B012803D1C3
:1028B000029840F002000290AE48007C012803D14B
:1028C000029840F0040002905046421C02F0FF0AB9
:1028D000A74A029911545046421C02F0FF0AA44A2A
:1028E000039911544FF0000B4DE10BEB4B009C4949
:1028F00031F8300000287CD00BEB4B0001EBC0001E
:10290000807D012875D10A9801280ED10BEB4B0070
:1029100001EBC000407C012807D00BEB4B0001EB22
:10292000C000407C022800D029E10BEB4B008C4911
:1029300001EBC000C27900230BEB4B0001EBC000A0
:10294000007A190241EA106142EA002219430BEBB6
:102950004B00834B03EBC000437A0020000440EAA5
:10296000134042EA034201430BEB4B007C4B03EB69
:10297000C000837A0020000640EA132042EA036286
:1029800001430BEB4B00764B03EBC000C07A0B46C8
:102990001843CDE906200BEB4B00714901EBC00059
:1029A000007B00230BEB4B016D4A02EBC101497B1D
:1029B0001A0242EA11624FEA012C1946134640EA14
:1029C0000C0241EA03000BEB4B01654B03EBC10129
:1029D0008B7B0021090441EA134142EA034201438F
:1029E0000BEB4B005E4B03EBC000C37B00200006EB
:1029F00000E0C3E040EA132042EA036201430BEB2C
:102A00004B00574B03EBC000007C144641EA000525
:102A1000DDE90610091BA8410AD34FF48070DDE9F7
:102A20000621524260EB0100161940EB050704E055
:102A3000DDE90601261A65EB0107DDE90810611AD8
:102A400075EB00000BD34FF48071634261EB05011D
:102A5000DDE9082013EB020841EB000905E0DDE9A0
:102A60000810B1EB040860EB05090BEB4B003C4987
:102A700031F8300002125046411C01F0FF0A3C4977
:102A80000A540BEB4B00364911F830205046411CDC
:102A900001F0FF0A36490A545046411C01F0FF0A72
:102AA00033490F54300E40EA0720C2B25046411C51
:102AB00001F0FF0A2E490A54300C40EA0740C2B226
:102AC0005046411C01F0FF0A29490A54300A40EAE5
:102AD0000760C2B25046411C01F0FF0A24490A5463
:102AE0005046411C01F0FF0A21490E545046411C3A
:102AF00001F0FF0A1E4901F800904FEA186040EA11
:102B00000920C2B25046411C01F0FF0A18490A547C
:102B10004FEA184040EA0940C2B25046411C01F059
:102B2000FF0A13490A544FEA182040EA0960C2B26A
:102B30005046411C01F0FF0A0D490A545046411C01
:102B400001F0FF0A0A4901F800800BEB4B00044931
:102B500001EBC000427C5046411C01F0FF0A0BE033
:102B6000F01600203817002080E70100CA0000207E
:102B7000F610002054100020A4490A5400BF0BF1A5
:102B8000010000F0FF0BBBF1030FFFF6AEAE0A9899
:102B9000002874D19E48008B002870D09C4890F883
:102BA0002E000128F5D19A48C07F0023984991F85A
:102BB0002020190241EA12614FEA022C1A460B4604
:102BC00040EA0C0142EA0300914A92F821300022C7
:102BD000120442EA134C41EA034240EA0C008C49D9
:102BE00091F822300021090641EA132142EA0362EA
:102BF00040EA0103864890F823001843CDE90620F7
:102C0000834890F824000023814991F82520190277
:102C100041EA12614FEA022C1A460B4640EA0C01C7
:102C20001A437B4890F826300020000440EA134005
:102C30004FEA034C134641EA0C0243EA0001744890
:102C400090F827300020000640EA132042EA036291
:102C500001436F4890F82800144641EA0005DDE979
:102C60000610091BA8410BD34FF48072DDE9060161
:102C7000434262EB01001E1940EB050705E08FE0BF
:102C8000DDE90610661A65EB0007DDE90801201A88
:102C900075EB01000BD34FF48070634260EB0501CC
:102CA000DDE9082013EB020841EB000905E0DDE94E
:102CB0000810B1EB040860EB05095548008B0212BF
:102CC0005046411C01F0FF0A50490A545048027E08
:102CD0005046411C01F0FF0A4C490A545046411C21
:102CE00001F0FF0A49490F54300E40EA0720C2B2F2
:102CF0005046411C01F0FF0A44490A54300C40EA96
:102D00000740C2B25046411C01F0FF0A3F490A5435
:102D1000300A40EA0760C2B25046411C01F0FF0A87
:102D20003A490A545046411C01F0FF0A37490E54F3
:102D30005046411C01F0FF0A344901F800904FEA67
:102D4000186040EA0920C2B25046411C01F0FF0A57
:102D50002E490A544FEA184040EA0940C2B2504690
:102D6000411C01F0FF0A29490A544FEA182040EAA1
:102D70000960C2B25046411C01F0FF0A23490A54BF
:102D80005046411C01F0FF0A204901F8008020480C
:102D900090F829205046411C01F0FF0A1B490A54B3
:102DA000AAF10C0019490A5C401E085C42EA0020A6
:102DB00004901A225046411C01F0FF0A13490A549C
:102DC000A1F10800A0F800A00120083981F88700CF
:102DD0004FF6FF70C8800398012803D1049808B10A
:102DE0000498C8800B484088084908394880012366
:102DF0001A4600210548083805F034FB0190019877
:102E000010B1002005F076FA0020D1E4F610002081
:102E100038170020541000200020524909880E293C
:102E200000D0704750490978062908D04E490978E2
:102E3000072904D04C490978082900D0F1E74B490B
:102E400089784B4A1278914207D14849C9780129BB
:102E500004D04649C978022900D0E2E7002048E0C2
:102E600000EB4001434A32F83110E9B300EB400176
:102E700032F83110404A1288914238D100EB4001BB
:102E80003C4A02EBC1018979384AD27891422ED16D
:102E900000EB4001374A02EBC101897D012926D1AF
:102EA000022100EB4002334B03EBC20291752F4924
:102EB000097900EB400203EBC20291742B49897936
:102EC0002A4A527941EA022100EB400203EBC20296
:102ED00091802649097A254AD27941EA022100EBFC
:102EE000400203EBC20200E001E0518003E0411C1C
:102EF000C8B20328B4DB00BF1B49097806292ED1CC
:102F000003282CD11D49098B49B31C49098B1A4A46
:102F10001288914223D11949897F144AD27891426B
:102F20001DD1164991F82E10012918D102221349FA
:102F300081F82E200D490A79104981F82A200B4981
:102F400089790A4A527941EA02220C498A8307495F
:102F5000097A064AD27941EA022208494A8300BF27
:102F60005FE7000068000020D10000206E10002004
:102F7000CA000020F0160020700000203817002042
:102F80002DE9F84F80460F460025AA46002400266A
:102F9000A346A1460520009004F000FCB8F1000F04
:102FA00027D000BF1DE004EB44009E4931F83000FB
:102FB000A8B104EB440001EBC000407C012806D01E
:102FC00004EB440001EBC000407C022807D104EB75
:102FD0004400944901EBC000807D00B903E0601C0F
:102FE000C4B2032CDFDB00BF032C02D10120BDE8FB
:102FF000F88F8D48007800F00F04641C04F00F0473
:103000008948007800F0F0002043874908700025C7
:10301000A12229466D1C85484254012229466D1C77
:1030200042548148027829466D1C8048425401224E
:1030300029466D1C42547E48C07B012801D149F0CD
:1030400002097B48007C012801D149F00409284687
:10305000691C8DB2754901F8009064222846691CEC
:103060008DB272490A542846691C8DB26F490F54BB
:1030700000222846691C8DB26C490A542846691CF6
:103080008DB26A490A54B8F1000F53D100260024CA
:1030900023E004EB4400634931F83000D8B104EB7D
:1030A000440001EBC000807DA8B904EB440031F876
:1030B000300002122846691C8DB25C490A5404EBA8
:1030C0004400584911F830202846691C8DB25749F0
:1030D0000A54701CC6B2601CC4B2032CD9DB55481C
:1030E000008BA0B1534890F82E0080B95148008B56
:1030F00002122846691C8DB24C490A544D48027E82
:103100002846691C8DB249490A54701CC6B2002E6B
:1031100006DD681E45490A5CA81E085C42EA002AD2
:103120004248083806741A222846691C8DB23F4965
:103130000A5449E00026002432E004EB44003949F7
:1031400031F8300050B304EB440001EBC000407C88
:10315000012806D004EB440001EBC000407C0228AB
:103160001CD104EB44002F4901EBC000807DA8B9BD
:1031700004EB440031F8300002122846691C8DB27D
:103180002A490A5404EB4400264911F83020284605
:10319000691C8DB225490A54701CC6B2601CC4B2A9
:1031A000032CCADB002E06DD681E20490A5CA81E1F
:1031B000085C42EA002A1D48083806741A2228468C
:1031C000691C8DB219490A54012F03D1701C00F0FB
:1031D000FF0B00E0B346154808380580002013496E
:1031E000083981F887001248408848804FF6FF7000
:1031F000C88047B9BBF1010F05D1BAF1000F02D069
:103200000846A0F806A001231A460B4907480838CB
:1032100005F028F90090009810B1002005F06AF838
:103220000020E4E6F0160020CA000020F61000207E
:103230005410002038170020CC00002000205349F3
:103240000988052900D070475149097801290CD017
:103250004F490978022908D04D490978032904D03B
:103260004B490978042900D0EDE74A4989784A4A50
:103270001278914207D14749C978012904D04549BC
:10328000C978022900D0DEE700203AE000EB4001D7
:10329000424A32F8311089B300EB400132F8311064
:1032A0003F4A128891422AD100EB40013B4A02EB8F
:1032B000C1018979374AD278914220D1354949787C
:1032C00001291AD100EB4002344B03EBC202917585
:1032D00000EB40011A4602EBC101324A1368CB6091
:1032E00012790A7400EB40012C4A02EBC1012E4A0C
:1032F0001368C1F807301279CA7204E0FFE7411C75
:10330000C8B20328C2DB00BF21490978012903D0D4
:103310001F490978022937D1032835D12349098B60
:1033200001B32249098B1E4A128891421AD11F49C2
:10333000897F184AD278914214D1164949780129D7
:1033400022D10122194981F82E20164A13684B62B6
:10335000127981F82820C91D134A13688B611279EC
:103360000A7711E01149098871B9094909780229D8
:103370000AD10B4909880D4A118000219175054930
:10338000C97891710021517500BF5CE76800002089
:10339000D10000206E100020CA000020F01600208E
:1033A0007000002072000020CC00002038170020A0
:1033B0002DE9F04705460E4617469846DDF8209061
:1033C00000243B48007800283BDD00BF37E0394847
:1033D00000EB0410408978B3364800EB04104089B4
:1033E000A8422AD1334800EB0410007BB04224D11C
:1033F000B8F1010F0FD12F4800EB041047602D48A2
:1034000000EB0410A0F8089004F0E2F8294901EB61
:103410000411086009E00020264901EB04114881ED
:1034200023480078401E22490870234A00210320C7
:1034300005F0E2FFBDE8F087FFE7601CC4B20A2C8C
:10344000C5DBB8F1010F31D1194800780A2800DB3B
:10345000F0E7002428E0174800EB0410408908BB7F
:1034600004F0B6F8134901EB04110860114800EBB1
:10347000041045810F4800EB041006730D4800EB63
:10348000041047600B4800EB0410A0F808900848AF
:103490000078401C06490870074A0021032005F007
:1034A000ABFFC7E7601CC4B20A2CD4DB00BFC1E786
:1034B000CB00002068170020E535000808B5012181
:1034C000082004F0A1FB4FF4E060ADF800001020EC
:1034D0008DF8030003208DF802006946094803F0C7
:1034E00097FF4FF48071074800F087FD4FF400719B
:1034F000044800F082FD4FF48061024800F07DFD39
:1035000008BD0000000C014010B50020054908600E
:103510000549C1F8A401034908310860052005F0F8
:10352000A9FF10BDA08121420080214210B528488A
:10353000407C00283BD02748007850B9012026491C
:10354000086000202549C1F8A4012349083108601A
:1035500021E02048007801280BD100201E49086096
:1035600001201E49C1F8A40100201B490831086050
:1035700011E01848007802280AD100201649086096
:103580001649C1F8A401012013490831086002E07E
:103590000020104908700F480078401C0D49087041
:1035A0000846007802280BDD0020087008E00020A3
:1035B000094908600949C1F8A401074908310860B0
:1035C000AFF2970206480168052005F015FF10BD0F
:1035D00054100020E5000020A081214200802142FB
:1035E000DC00002070B54FF6FF750024FF266F4801
:1035F000007800282CDD00BF27E06D4800EB0410A8
:10360000408900B36A4800EB0410007BFF281AD001
:1036100003F0DEFF664901EB04110968401A6449B2
:1036200001EB0411496888420DD30020604901EB89
:10363000041148815D480078401E5C4908700846C6
:10364000007800B903E0601CC4B20A2CD5DB00BFCF
:103650005648007800287DDD002418E0544800EB2F
:103660000410408988B1524800EB0410007BFF2809
:103670000AD04F4800EB04100089A84205DC4C48F2
:1036800000EB0410058900E02646601CC4B20A2C39
:10369000E4DB4FF6FF7085424CD04648007D0128A0
:1036A0000ED14448407D4FF4FA71484342490860C6
:1036B0004048807D4FF4FA714843404908601AE061
:1036C0003C48007D022807D142F210703A49086058
:1036D00000203A4908600EE0384805604FF4FA705F
:1036E0003549086035480068B0F5FA7F03D24FF4D9
:1036F000FA70324908604FF4FA60684342F2107180
:10370000B0FBF1F02E49086008460068B0F5FA7F7A
:1037100002D24FF4FA7008602A48007838BB0020C3
:103720002949087001202749087000F0B9F8FFF70F
:10373000FDFE33E023480078012808D1002022490B
:1037400008702049087000F073F9FFF7DDFEFF2EC6
:1037500024D000E00CE01C48007840B901201A4950
:1037600008704FF47A7016490860FFF7DFFE15E025
:1037700014480078012808D1002013490870114925
:10378000087000F055F9FFF7BFFE0F4800780128D8
:1037900004D100200C490870FFF7B6FEAFF2BB124F
:1037A00042F21071032005F027FE70BDCB0000200F
:1037B0006817002054100020D8000020D4000020FA
:1037C000DC000020D2000020E000002070B500BF27
:1037D00000F005FC03F0FCFE0546FEF719FEFEF7BF
:1037E000D9FC0B2190FBF1F201FB120042F29F4148
:1037F0004843054901EB8014AFF22F02214608200F
:1038000005F0FAFD70BD0000808D5B0010B50D2243
:103810001E491F4805F01DFC1C48C07D182822D0F9
:1038200040F259101949088049F21050488064202C
:10383000488188800020C880088140F6B83088819F
:103840000120C87388730874487488740A20C87487
:10385000002008750220487588751820C8750D224B
:103860000B4805F003FC03220A490B4805F0F1FB65
:1038700008488078552808D000200649088055203F
:1038800088700322044805F0F1FB10BD541000209D
:1038900000F401086200002000F8010800BFFEE704
:1038A00010B55E480078002851D15D480068E8B93D
:1038B0001C2004F0CBF800220121880705F0DCFE73
:1038C00000214FF0804005F0B1FE0121880705F08E
:1038D000AAFE00205349086050490870AFF23F0229
:1038E00042F21071042005F087FD95E04E48807C7F
:1038F000A0B11C2002F0F8F801280FD001218807A0
:1039000005F091FE1C2004F0D8F801221146900722
:1039100005F0B2FE0121880705F088FE43480068E3
:1039200050B900203D490870AFF28B0242F210718D
:10393000042005F061FD6FE0012038490870AFF206
:103940009F0237480168042005F056FD64E03748BF
:103950000068002843D132480068E8B91C2004F010
:1039600075F800220121880705F086FE00214FF03E
:10397000804005F05BFE0121880705F054FE002021
:103980002849086025490870AFF2EB0242F2107135
:10399000042005F031FD3FE02348807CA0B11C20CD
:1039A00002F0A2F801280FD00121880705F03BFEA4
:1039B0001C2004F082F801221146900705F05CFEFD
:1039C0000121880705F032FE012014490870AFF28A
:1039D0002F1242F21071042005F00EFD1CE01C2095
:1039E00004F034F800220121880705F045FE00218B
:1039F0004FF0804005F01AFE0121880705F013FE04
:103A000000200849086005490870AFF26B120748AA
:103A10000168042005F0F0FC10BD0000D300002078
:103A2000D8000020B801214254100020D40000200A
:103A300010B51C2004F00AF800220121880705F0C7
:103A40001BFE00214FF0804005F0F0FD01218807AA
:103A500005F0E9FD042005F00DFD00200249086095
:103A60000249087010BD0000B8012142D3000020B7
:103A70002DE9FF47002700240025002003904FF088
:103A8000050800264FF004094FF4484403F086FE71
:103A9000E8203749087201213548417219218172A5
:103AA0000121C172252101734321417319218173C1
:103AB0000521C173162101744174210C8174210AFE
:103AC000C17404758E2141750E202949088000209B
:103AD00081F887004FF6FF70C880488001230022DC
:103AE0001146234804F0BEFC8046B8F1000F37D1E0
:103AF00003F06EFD07462DE005F042F90646FF2E65
:103B000028D0002003AACDE9002003467F221949CE
:103B10000290304605F060F90546062D1AD1154889
:103B20000078F82816D113484078012812D1681E71
:103B30001049085C8F280DD1084690F80290007952
:103B4000C97800EB01200C490880BDF80C000B4936
:103B5000088004E003F03CFDC01B0C28CCD302E03D
:103B6000002004F0C7FB484604B0BDE8F087000021
:103B7000EE1000206E1000204400002046000020BF
:103B80002DE9F04F89B000200890002780460024DE
:103B9000814682460790052006904FF0000B0025D5
:103BA000002601200590FF200490E8205249087269
:103BB0000421514841728E21817203204E490880B0
:103BC000002081F887004D480088C8804C48008854
:103BD000488000BF87E003F0E1FD01230022114689
:103BE000454804F03FFC06900698002874D103F085
:103BF000EFFC089068E005F0C3F804900498FF28F3
:103C000062D0002007AACDE9002003467F223D496B
:103C10000290049805F0E0F88246BAF1070F53D1FC
:103C200038480078F8284FD13648407804284BD1DE
:103C3000AAF101003349085C8F2845D12F4800883C
:103C4000BDF81C1088423FD12E48807800062D49CF
:103C5000C97800EB01402B49097900EB0120294983
:103C60004979471822E028480068001B402801D9FC
:103C7000402503E024480078001BC5B22A461E49AF
:103C800008312248484404F0F9FC002605E01A48AF
:103C90000830805D8044701CC6B2AE42F7DB2C4415
:103CA000A94419480068844200D300E0DBE700BF64
:103CB000474504D1002005901548076001E0012028
:103CC00005904FF0640B05E003F082FC0899401A60
:103CD0001E2890D303E0FFE7002004F00BFB0BF15C
:103CE000010000F0FF0BBBF1140FFFF674AF059855
:103CF00009B0BDE8F08F0000EE1000204600002063
:103D0000440000206E1000204800002000E8000859
:103D10004C0000202DE9FF470027002400200390DD
:103D20004FF0050800254FF00209FF26E8205A4908
:103D300008720221584841728E218172032056492F
:103D40000880002081F8870054480088C8805448C3
:103D50000088488000BF98E003F020FD0123002286
:103D600011464D4804F07EFB8046B8F1000F7BD130
:103D700003F02EFC07467CE005F002F80646FF2E15
:103D800077D0002003AACDE9002003467F224549D1
:103D90000290304605F020F804460E2C69D14148C7
:103DA0000078F82865D13F484078022861D1601E2C
:103DB0003C49085C8F285CD138480088BDF80C105D
:103DC000884256D13748807800043649C97800EBDC
:103DD0000120344909790844334908603148407961
:103DE000324908702F48807948702E48C079887011
:103DF0002C48007AC8702B48407A2D490870294811
:103E0000807A48702748C07A88702648007BC8703E
:103E10002548006828B324480068B0F5484F20D8EA
:103E2000084600780006497800EB0140204989786F
:103E300000EB01201E49C97808441E49884210D071
:103E40001A48007800061949497800EB01401749E3
:103E5000897800EB01201549C97808441649884241
:103E600003D04FF0010902E00AE04FF00009642599
:103E700005E003F0ADFBC01B1E28FFF47DAF02E0A0
:103E8000002004F037FA681CC5B20A2DFFF664AFB3
:103E9000484604B0BDE8F087EE1000204600002040
:103EA000440000206E100020480000205400002034
:103EB0005000002016160519432501192DE9FF5F52
:103EC00005460C464FF000090026002003904FF0F5
:103ED000050A00274FF0010B4FF0FF08E820394991
:103EE000087205213748417285721921C17201217A
:103EF00001732521417343218173210EC173210C6C
:103F00000174210A417484748E21C1740C202D49DE
:103F10000880002081F887002B480088C8802B4843
:103F20000088488000BF46E003F038FC01230022EF
:103F30001146244804F096FA8246BAF1000F35D1B2
:103F400003F046FB81462AE004F01AFF8046B8F1F0
:103F5000FF0F24D0002003AACDE9002003467F22D2
:103F60001B490290404604F037FF0646032E16D147
:103F700017480078F82812D11548407805280ED146
:103F8000701E1349085C8F2809D10F480088BDF8BE
:103F90000C10884203D14FF0000B642705E003F0BA
:103FA00017FBA0EB09001E28CED302E0002004F08E
:103FB000A1F9781CC7B2142FB6DB584604B0BDE88F
:103FC000F09F0000EE10002046000020440000207A
:103FD0006E10002010B504F0A1FF10BD704710B5A1
:103FE0000024FFF745FD044634B901F09DFB18B9E4
:103FF00005F04EFA00BFFEE710BD41617047704703
:1040000043250119161605192DE9F04FADF5057D6B
:104010000024A246A046002084904FF0050B002605
:104020004FF0FF09002700254FF4007104A8FEF7A8
:1040300074FA5548006820B153480068B0F5484FFD
:1040400004D901200DF5057DBDE8F08F94E0E8204E
:104050004E49087203214D484172210C8172210A98
:10406000C17204738E2141730620484908800020E4
:1040700081F8870046480088C88046480088488004
:10408000002674E003F08AFB0123002211463F481A
:1040900004F0E8F98346BBF1000F63D103F098FA0E
:1040A000824658E004F06CFE8146B9F1FF0F52D011
:1040B000002084AACDE9002003467F2236490290E1
:1040C000484604F089FE8046B8F1460F43D1324895
:1040D0000078F8283FD13048407803283BD12E485B
:1040E000807800042C49C97800EB01202A4909791D
:1040F0000844A0422FD1A8F101002749085C8F286D
:1041000029D123480088BDF81012884223D104A980
:10411000481940222049491DFEF798F905F1400051
:1041200085B24034B5F5007F09DB1C4978188A1444
:1041300004A906F061FD07F50077002509E01248A3
:104140000068844205D3154978182A4604A906F068
:1041500053FD642605E003F03BFAA0EB0A00322889
:10416000A0D302E0002004F0C5F8701CC6B2142EE3
:1041700088DB01D1022065E7034800688442FFF430
:1041800066AF00205EE7000048000020EE1000202F
:1041900046000020440000206E10002000E80008C7
:1041A0001FB50121092003F02FFD0220ADF80C00FE
:1041B00028208DF80F0003A9134803F029F90121E5
:1041C000084603F005F90220019000208DF8080050
:1041D00008208DF8090001208DF80A0001A801F0DF
:1041E00099FC022001F06CFC07208DF800000120F2
:1041F0008DF8010000208DF8020001208DF80300E9
:10420000684603F065FC1FBD000C014070B58AB024
:1042100000260024142105A8FEF77FF91421684622
:10422000FEF77BF9FFF7BCFFFFF7D4FE03F0B6FA09
:1042300000F0A6F820B12CA006F018FB00BFFEE7A6
:1042400003F0ACFA2EA006F011FB00240CE0FDF701
:10425000A1FF0546C01705EB10600012A5EB00207A
:1042600005A90855601CC4B2142CF0DB05AB142260
:104270000021212007F08CFC6B4614220021212014
:1042800007F0BBFA002408E005A8005D1DF8041043
:10429000884200D003E0601CC4B2142CF4DB00BFE1
:1042A000142C04D01BA006F0E1FA00BFFEE721A009
:1042B00006F0DCFA08F0F1F8012007F08FF8064666
:1042C000701C20B923A006F0D1FA00BFFEE727A09A
:1042D00006F0CCFA08F0DCF805214FF4146007F082
:1042E0000FF80AB070BD00004457313030305F57CE
:1042F000616B65204661696C6564210D0A000000F0
:104300004457313030305F57616B65204F4B210D82
:104310000A000000445731303030205350492043C8
:104320006F6D6D756E6963617465204572726F7231
:10433000210D0A004457313030302053504920437A
:104340006F6D6D756E6963617465204F4B210D0A49
:10435000000000004457313030305F496E697420EE
:104360004572726F72210D0A00000000445731300F
:1043700030305F496E6974204F4B210D0A000000F8
:1043800010B508F08AF800200D4908604FF4167047
:1043900006F056FE01200B49C1F8900104F08AFA9C
:1043A000401C10B94FF0FF3010BD07F020FA06494D
:1043B000884201D08817F7E708F06AF80020F3E791
:1043C00090012142000021423001CADE2DE9F8436C
:1043D000002500240026A046002700BF56E104EB7C
:1043E0004400FD4931F8300000282ED004EB440091
:1043F00001EBC000807901280BD104EB440001EBF4
:10440000C000807C00F0020018B9F448C07B01288D
:1044100013D104EB4400F04901EBC000807902287D
:1044200014D104EB440001EBC000807C00F00200DA
:1044300060B9EA48007C012808D004EB4401E64A50
:1044400002EBC1001821FEF746F81DE104EB440021
:10445000E14901EBC000807D022873D104EB4400E8
:1044600001EBC000477C002004EB4401DA4A02EB78
:10447000C101087504EB440102EBC101487404EB6F
:10448000440102EBC101C87404EB4400114601EB86
:10449000C000807901285ED1D048C07B012828D196
:1044A00004EB440001EBC0004088CC4949898842B4
:1044B0001FDC012F01D0022F0DD1012004EB44019C
:1044C000C54A02EBC101C874022004EB440102EBAF
:1044D000C1014874C9E0002004EB4401BE4A02EB6C
:1044E000C101C874012004EB440102EBC10148740E
:1044F000BBE004EB4400B84901EBC000807C00F055
:1045000002000028E6D004EB440001EBC000408824
:1045100004EB4401B04A02EBC10189888842D9DC2E
:10452000002004EB440102EBC101C874012F01D04B
:10453000022F08D1022004EB4401A74A02EBC1017B
:10454000487492E05DE0012004EB4401A24A02EBD2
:10455000C101487489E004EB44009F4901EBC000AD
:104560008079022844D104EB440001EBC000807C38
:1045700000F0020018B99948007C012875D104EBBD
:104580004400954901EBC000408804EB4401924A85
:1045900002EBC1018988884267DC012F01D0022F1C
:1045A00018D1022004EB44018B4A02EBC10148748C
:1045B0008A48007C012805D104EB440102EBC101CB
:1045C000C87452E0002004EB4401834A02EBC101AD
:1045D000C8744AE0012004EB44017F4A02EBC101A8
:1045E0004874002004EB440102EBC101C8743CE0B4
:1045F00004EB4401784A02EBC1001821FDF76BFF80
:1046000033E004EB4400744901EBC000007D401C22
:1046100004EB4401704A02EBC101087504EB44004D
:10462000114601EBC000407C02280ED104EB44008F
:1046300001EBC000007D052817DB04EB440102EB11
:10464000C1001821FDF747FF0FE004EB4400624969
:1046500001EBC000007D022807DB04EB44015E4A49
:1046600002EBC1001821FDF736FF04EB44005A4964
:1046700031F8300040B104EB440001EBC000407C55
:10468000022801D14FF00108601CC4B2032CFFF6D0
:10469000A6AE5348008B00287AD05148807F01286D
:1046A00009D14F4890F82A0000F0020018B94B4891
:1046B000C07B01280DD14A48807F02280FD148488D
:1046C00090F82A0000F0020048B94448007C012814
:1046D00005D0182142481830FDF7FDFE65E040483E
:1046E00090F82E00022859D100213D4880F82C1066
:1046F000002004EB4401384A02EBC101487404EB8A
:10470000440102EBC101C8743548807F012824D1DF
:104710003248C07B01280DD13148408B2F4949894F
:10472000884207DC00212E4880F82B10012180F8F8
:10473000291033E02A4890F82A0000F0020030B334
:104740002748418B808B814228DC0021244880F857
:104750002B10012180F8291020E02148807F0228B9
:1047600017D11F4890F82A0000F0020018B91B4822
:10477000007C012812D11A48418B808B81420DDCCC
:104780000021174880F82B10012180F8291005E03E
:1047900080E0182112481830FDF79DFE104890F86F
:1047A0002900022801D14FF001080D48008B002894
:1047B00070D0002418E004EB4400074931F83000C1
:1047C00080B904EB4401044A02EBC10018220449F9
:1047D0001831FDF73BFE09E0F016002054100020D0
:1047E00038170020601CC4B2032CE4DB00BF032C8C
:1047F0006FD1F94890F82E000228F9D1F74DFF2625
:1048000000249BE004EB4400F54901EBC000807DEF
:1048100002283ED104EB440001EBC000807901285E
:104820006ED1F048C07B01286AD104EB440001EB53
:10483000C000807C00F0020068B304EB440001EB90
:10484000C0004088E7494989411A04EB4400E44A22
:1048500002EBC000408804EB4402E14B03EBC202D0
:104860009288801A814217DA04EB4400194601EB62
:10487000C0004088DB494989401AA8425CDD04EB4E
:104880004400194601EBC0004088D6494989451AC1
:10489000264651E090E11DE004EB4400D04901EBD5
:1048A000C000408804EB4401CD4A02EBC101898875
:1048B000401AA84240DD04EB4400114601EBC00061
:1048C000408804EB440102EBC1018988451A264661
:1048D00032E05DE004EB4400C14901EBC0004088D8
:1048E000C0494989401AA84226DD04EB4400BC496E
:1048F00001EBC0004088BB494989451A26461BE0A8
:1049000004EB4400B64901EBC000408804EB4401CD
:10491000B34A02EBC1018988401AA8420CDD04EBBE
:104920004400114601EBC000408804EB440102EB57
:10493000C1018988451A2646601CC4B2032CFFF6C3
:1049400061AFFF2E48D0A448807F012833D1A5480D
:10495000C07B01282FD1A04890F82A0000F0020067
:10496000B8B19D48418B808B081AA84206DB9A4853
:10497000408B9C494989401AA84209DA06EB460156
:10498000974A02EBC100182293491831FDF75EFDEA
:104990000DE19148408B93494989401AA842F7DAC2
:1049A00006EB46018E4A02EBC10018228A491831F3
:1049B000FDF74CFDFBE08848418B808B081AA8422C
:1049C000E6DA06EB4601864A02EBC100182282496C
:1049D0001831FDF73BFDEAE07F4890F829000128F7
:1049E00004D07D4890F82900022872D17A48807F4F
:1049F00002286ED1002422E004EB4400784901EB48
:104A0000C0008079012818D104EB440001EBC000FC
:104A1000807D022806D104EB440001EBC000407CFD
:104A200002280AD004EB44016D4A02EBC1001822AF
:104A300069491831FDF70AFD03E0601CC4B2032C7C
:104A4000DADB00BF032C44D1644DFF2600249FE035
:104A500004EB4400624901EBC0008079012837D1A2
:104A600004EB440001EBC000807C00F0020088B33E
:104A70005C48C07B01284BD104EB440001EBC00033
:104A8000408858494989401A04EB4401544A02EBD2
:104A9000C101498804EB4402514B03EBC2029288E6
:104AA000891A884217DA04EB4400194601EBC0006A
:104AB00040884C494989401AA84267DD04EB44000C
:104AC000194601EBC000408846494989451A2646E7
:104AD0005CE06CE01CE004EB4400414901EBC000E9
:104AE000408804EB44013E4A02EBC1018988401A28
:104AF000A8424BDD04EB4400114601EBC0004088A6
:104B000004EB440102EBC1018988451A26463DE0C9
:104B100004EB4400324901EBC000807C00F002004D
:104B2000D8B104EB440001EBC000408804EB440121
:104B30002B4A02EBC1018988401AA84226DD04EB0A
:104B40004400114601EBC000408804EB440102EB35
:104B5000C1018988451A264618E02248C07B0128F1
:104B600014D104EB44001E4901EBC00040881D49EC
:104B70004989401AA84209DD04EB4400184901EBB9
:104B8000C000408817494989451A2646601CC4B2AE
:104B9000032CFFF65DAFFF2E09D006EB4601104A4D
:104BA00002EBC10018220C491831FDF74FFC182107
:104BB00009481830FDF78FFC0748008848B11822D3
:104BC000054901F11800FDF741FC18210248FDF7E5
:104BD00082FC002494E00000381700206079FEFF7A
:104BE000F01600205410002004EB4400654931F811
:104BF000300098B304EB440001EBC000807D022834
:104C00007CD104EB440001EBC000C07C012864D1DE
:104C100004EB440001EBC000807901281FD104EBB4
:104C2000440001EBC000408842F2107148435649ED
:104C30004989B0FBF1F01FFA80F904EB4402514BB3
:104C400003EBC202CDF80090917904EB440233F8F3
:104C5000320001234FF4FA42FEF7AAFB4EE004EBC8
:104C60004400484901EBC0008079022823D104EBBD
:104C7000440001EBC000408842F21071484304EB4D
:104C80004401404A02EBC1018988B0FBF1F01FFAF0
:104C900080F904EB44023B4B03EBC202CDF80090D9
:104CA000917904EB440233F8320001234FF4FA42C5
:104CB000FEF77EFB22E0002004EB4402314B03EBC5
:104CC000C2020090917904EB440233F832000023D1
:104CD0004FF4FA42FEF76CFB10E0002004EB4402B4
:104CE000284B03EBC2020090917904EB440233F8A5
:104CF000320000234FF4FA42FEF75AFB601CC4B2A4
:104D0000032CFFF671AF2048808910B1B8F1010F74
:104D100003D100201D49087032E0002418E004EBA4
:104D20004400184931F8300080B104EB440001EB35
:104D3000C000807D022809D104EB440001EBC000D3
:104D4000408811498989884200DA03E0601CC4B2B6
:104D5000032CE4DB00BF032C0FD10C48007805289E
:104D600004DA0A480078401C0849087007480078AF
:104D7000052805DB0120BDE8F88300200349087001
:104D80000020F8E7F016002054100020EB0000206F
:104D90002DE9F05F04468A461746002600254FF0AD
:104DA0000508A946607800287DD100BF0FE070009B
:104DB000001D215C7000C01C205C41EA0020F74906
:104DC0000988884201D1BDE8F09F701CC6B2A07866
:104DD000B042ECDC0025F12229466D1CF04842541B
:104DE000002229466D1C4254EC48008802122946D4
:104DF0006D1CEB484254E948027829466D1CE8488E
:104E00004254012229466D1C4254E6480068020EB5
:104E100029466D1CE2484254E2480068C0F307424C
:104E200029466D1CDE484254DE480088C0F3072244
:104E30002846691CCDB2DA490A54DA480278284675
:104E4000691CCDB2D6490A54D74802782846691C55
:104E5000CDB2D3490A540021D1484155002608E07B
:104E6000CF48415D805D0844C1B2CD484155701CBA
:104E7000C6B2AE42F4DB1F21681CC2B21546C84858
:104E80008154681CC64908390880002081F88700D1
:104E90004FF4026048800846C78002F099FB8346C1
:104EA000FDF7B6FA00E01FE0FDF774F9642190FB0E
:104EB000F1F201FB120000EB8000012101EB400048
:104EC0001FFA80F9484606F0BBF80123002211467C
:104ED000B348083803F0C6FA8046B8F1000F02D094
:104EE000002003F007FA82E3E078A17840EA01208D
:104EF000AA490988884200D065E72079012800D0B6
:104F000061E70025F12229466D1CA54842546278CC
:104F100029466D1C4254A27829466D1C4254E27801
:104F200029466D1C4254227929466D1C42546078F2
:104F3000532873D00FDCA0F1400013286FD2DFE8B4
:104F400000F0294A4B6F6E6E778697A7C2CADBF1D5
:104F5000EFEEEDECEB00F62872D012DC582870D0A2
:104F600008DC54286ED055286DD056286CD05728B0
:104F700055D1CDE1F32868D0F42867D0F528F7D1D2
:104F80008DE2F7380828D9D2DFE800F0EEEDECEB3F
:104F9000EAE9E8E7607908B9A07928B16079FF28E3
:104FA00003D1A079FF2800D10DE7A079617940EA0B
:104FB00001207A4908800846008802122846691CA8
:104FC000CDB277490A54754802782846691CCDB29B
:104FD00073490A5482E281E272480068020E284650
:104FE000691CCDB26E490A546E480068C0F307428E
:104FF0002846691CCDB26A490A546A480088C0F341
:1050000007222846691CCDB265490A5465480278D2
:105010002846691CCDB262490A545FE2FEE05CE2B8
:10502000614802782846691CCDB25D490A5455E2B0
:105030005E48827B2846691CCDB259490A544DE22C
:1050400025E275E124E13DE14CE13BE232E26079A9
:1050500018B16079012800D0B5E6607953498873AA
:105060000846827B2846691CCDB24D490A5435E278
:105070004E48808802122846691CCDB248490A541D
:105080004A4802792846691CCDB245490A5425E2AE
:10509000607910B9A07900B995E6A079617940EA04
:1050A0000120424988800846808802122846691CEF
:1050B000CDB23B490A543D4802792846691CCDB21D
:1050C00037490A540AE23948C27B2846691CCDB2E6
:1050D00033490A5402E2607918B16079012800D09E
:1050E00071E660793149C8730846C27B2846691C5D
:1050F000CDB22B490A54F1E12C48408902122846CE
:10510000691CCDB226490A542848827A2846691C6F
:10511000CDB223490A54E1E170E059E048E02CE0C7
:1051200023E0FFE7607910B9A07900B94BE6A079D8
:10513000617940EA01201D494881084640890212F0
:105140002846691CCDB216490A541848827A284666
:10515000691CCDB212490A54C0E1FFE006E116E134
:105160001DE12DE134E159E160E11048027C28465F
:10517000691CCDB20A490A54B0E1607918B160796E
:10518000012800D01FE66079084908740846027CAF
:105190002846691CCDB202490A549FE162000020F2
:1051A000F610002004400008600000205410002089
:1051B000FE48808902122846691CCDB2FC490A5477
:1051C000FA48027B2846691CCDB2F9490A5485E1A8
:1051D000A079617940EA0120F449888108468089F4
:1051E00002122846691CCDB2F1490A54EF48027BED
:1051F0002846691CCDB2EE490A546FE1EB4840885D
:1052000002122846691CCDB2E9490A54E74882785F
:105210002846691CCDB2E6490A545FE1607908B9B5
:10522000A07928B16079FF2803D1A079FF2800D1A7
:10523000C9E5A079617940EA0120DC494880084647
:105240004088000B498801F4706140EA2110D74979
:10525000897801F0F00140EA0110D449897801F021
:105260000F0140EA0130D1490880488806F0BDFBB3
:10527000CE48408802122846691CCDB2CC490A5457
:10528000CA4882782846691CCDB2C9490A5425E12A
:1052900049F21050C549488040F2591008804888AA
:1052A00006F0A3FBC148408802122846691CCDB213
:1052B000BF490A54BD4882782846691CCDB2BC4912
:1052C0000A540BE1B948C08802122946681CC5B2CD
:1052D000B7484254B54882792846691CCDB2B449D2
:1052E0000A54FBE0A079617940EA0120AF49C88007
:1052F0000846C08802122846691CCDB2AC490A543F
:10530000AA4882792846691CCDB2A9490A54E5E029
:10531000A648008902122846691CCDB2A4490A5445
:10532000A248027A2846691CCDB2A1490A54D5E0A8
:10533000A079617940EA01209C49088108460089EA
:1053400002122846691CCDB299490A549748027A3C
:105350002846691CCDB296490A54BFE09348427C66
:105360002846691CCDB292490A54B7E0607918B159
:105370006079012800D026E560798C494874084698
:10538000427C2846691CCDB289490A54A6E0874868
:10539000827C2846691CCDB285490A549EE060791A
:1053A00018B16079012800D00DE560797F498874D3
:1053B0000846827C2846691CCDB27D490A548DE09E
:1053C0007A48C27C2846691CCDB279490A5485E0E6
:1053D000607910B160790A2800DDF4E460797349DE
:1053E000C8740846C27C2846691CCDB270490A546C
:1053F0006E48C07C01280DDB6C48C07C0A2809DCA3
:105400006A48C07C401E6B4931F810004FF0804163
:10541000888502E0B420010788855FE06348027D4B
:105420002846691CCDB262490A5457E060790328C6
:1054300000DBC8E460795D4908750846027D2846AE
:10544000691CCDB25A490A545848007D022808D137
:1054500000205949087059490870012058490870BE
:1054600014E05248C07C01280DDB5048C07C0A285B
:1054700009DC4E48C07C401E4E4931F810004FF008
:105480008041888502E0B4200107888526E04748EE
:10549000427D2846691CCDB245490A541EE0607918
:1054A000424948750846427D2846691CCDB24049AC
:1054B0000A5413E03D48827D2846691CCDB23C4920
:1054C0000A540BE06079394988750846827D284680
:1054D000691CCDB236490A5400E074E400BF0021D3
:1054E00033484155002608E03148415D805D08445D
:1054F000C1B22F484155701CC6B2AE42F4DB1F2129
:10550000681CC2B215462A488154681C28490839CB
:105510000880002081F887004FF402604880084628
:10552000C78001230022114602F09CFF8046B8F19B
:10553000000F02D0002002F0DDFE607845282FD059
:10554000607847282CD06078492829D060784B288B
:1055500026D060784D2823D060784F2820D06078FE
:1055600051281DD0607853281AD06078542817D05D
:105570006078562814D06078582811D06078FD28BB
:105580000ED06078FB280BD06078F92808D06078BE
:10559000F72805D06078F52802D06078F32813D179
:1055A0000D220249074803F061FD20E0541000205D
:1055B000F6100020CED30008E1000020E200002019
:1055C000E300002000F401086078412803D103F0D3
:1055D0005FFF00BFFEE76078402808D1032205493D
:1055E000054803F043FD03F053FF00BFFEE700BF93
:1055F00082E400006200002000F8010870B5002479
:1056000015480078C8B905F061FA18BB01201249A5
:10561000087001F0DDFF0546FCF7FAFEFCF7BAFD65
:10562000642190FBF1F201FB1200C4B2AFF233022D
:105630002146092003F0E0FE0CE000200649087036
:10564000092003F017FF00F06FF818B903F020FFEE
:1056500000BFFEE770BD00005800002010B501211A
:10566000084602F0D1FA01211F4801F05DFF02F067
:10567000BAF9482005F0A6FCFEF7C8F802F0CAF80F
:10568000FDF71CFF02F052F803F02AFC4FF4E13062
:1056900005F096F801F0A8FF03F06CFE02F0FEF8AA
:1056A00018B912A005F0E2F802E016A005F0DEF845
:1056B00040F6FF71022002F05FF802F06FF8FEF78B
:1056C000A5FD02F061FB05F047F81548008828B1F8
:1056D000134800884FF6FF71884201D100F064FA48
:1056E00001201049086010BD000430004773656E4A
:1056F000736F7220496E6974204F4B2E2E2E0D0A47
:10570000000000004773656E736F7220496E697404
:10571000204661696C65642E2E2E0D0A0000000083
:1057200062000020B401214270B5002401252F48F9
:10573000008806F05AF9FEF7EDFA0446002C4DD128
:105740002B49086000220121084602F095FB4FF02A
:105750001F31012002F0ECFAFEF756FC40BBFEF7C9
:105760000FFAF8B9552023490870234800684860AB
:105770002248006888600822214803F077FC21480D
:10578000007800061F4A527800EB02401D4A9278CA
:1057900000EB02201B4AD27881180020FEF78EFB16
:1057A00000250AE018490120FEF788FB012504E0E6
:1057B00015490120FEF782FB01250022012102206C
:1057C00002F05AFB4FF01F31022002F0B1FA002024
:1057D00002F090FD01200649086000E0012549F231
:1057E000105006F002F9284670BD00004400002069
:1057F000B401214244100020480000204C00002049
:1058000000FC0108500000201616051970B5002490
:1058100000259248007848BB00BF0DE0002005EB52
:1058200045018F4A02EBC101887505EB450102EB8A
:10583000C1014875681CC5B2032DEFDB18218948EA
:10584000FCF749FE0021874880F82E1080F82D10C3
:105850008548007810308449087001208349086029
:10586000834A4FF4FA71022003F0C6FD7B480078AA
:105870000A2874D2DFE800F0054A4B5A696A798732
:1058800095967C480078012821D10020794908703C
:1058900000210846FDF774FB20B901206F4908700C
:1058A000322432E000206D49087001F091FE064676
:1058B000FCF7AEFDFCF76EFC0646C01706EB106069
:1058C0000012A6EB002442F2107004441DE00121F6
:1058D0000020FDF755FB20B90220604908703224F2
:1058E00013E000205D49087001F072FE0646FCF7E7
:1058F0008FFDFCF74FFC0646C01706EB1060001248
:10590000A6EB002442F2107004449EE000BF002188
:105910000120FDF735FB20B90320504908703224DF
:1059200003E005204D49087000248EE0002101208D
:10593000FDF726FB20B9042048490870322403E013
:1059400005204649087000247FE000BF0020FCF7D6
:10595000F1FE28B9062041490870322404E05FE0D6
:1059600009203E49087000246FE00120FCF7E2FEA8
:1059700020B9072039490870322403E0092037494B
:105980000870002461E00120FCF7D4FE20B9082053
:1059900032490870322403E009203049087000249D
:1059A00053E000BFFEF712FD88B901F011FE064674
:1059B000FCF72EFDFCF7EEFB0646C01706EB106069
:1059C0000012A6EB002442F21070044410E001F033
:1059D000FFFD0646FCF71CFDFCF7DCFB0646C01786
:1059E00006EB10600012A6EB002447F2305004448E
:1059F00001F0EEFE80B101201E490870642401F020
:105A0000E7FD0646FCF704FDFCF7C4FB642190FBB0
:105A1000F1F201FB1200044400201049087014E068
:105A200000200E49087001F0D3FD0646FCF7F0FC9B
:105A3000FCF7B0FB0646C01706EB10600012A6EBA1
:105A4000002442F21070044400BF00BFAFF24322B2
:105A50002146062003F0D0FC70BD0000D1000020DC
:105A6000F016002038170020CA000020B0012142A3
:105A7000A9880008E400002010B50F48006848B16C
:105A800000BF0D480068804702210C4801F094FDDA
:105A90000128F6D0022000F013F80748006848B14A
:105AA00002E00548006880470221044801F084FDB7
:105AB0000128F6D010BD000014000020000C0140A9
:105AC00001490860704700001404014001460020AD
:105AD0000022044B1B6803EA01020AB1012000E026
:105AE000002070470004014030B50146002000222C
:105AF0004B119B0003F1E023D3F8003101F01F05A7
:105B00000124AC4003EA04020AB1012000E00020B5
:105B100030BD0000002123498279002A3AD00A468C
:105B2000126803689A430B461A600A1D12680368DC
:105B30009A430B1D1A60027911440A6803681A43DC
:105B40000A60184A0832126803689A43154B0833F2
:105B50001A601A1D126803689A43124B0C331A60BC
:105B60004279102A0ED11A1F126803681A430D4B8E
:105B700008331A601A1D126803681A43094B0C3364
:105B80001A600DE00749427911440A6803681A4314
:105B90000A6005E0027911440A6803689A430A60C2
:105BA00070470000000401401FB54FF0000AD346C3
:105BB00000260020039000274FF0FF0881460025B3
:105BC0000024FE490860FE49C1F8B001FD48007894
:105BD000012808D10020FC490870FA490870FDF737
:105BE00027FFFDF791FC01E001F0D8FDF348943860
:105BF00000680028F8D000220221012002F03CF9C0
:105C000000221146104602F091FB02F02FF94FF4EA
:105C1000026005F0EAFE4FF4C56005F07DFE082045
:105C200005F090FB4FF4C560E84988804FF40260AE
:105C300048804FF01F31012002F07AF802F0FAF8A4
:105C4000002002F057FBDFF888B301F0C1FC824668
:105C500001F016BB01F0A2FD03F092F88046B8F106
:105C6000FF0F01F0ED82002003AACDE900200346DA
:105C70007F22D8490290404603F0AEF80646042E33
:105C8000C1F2DB82D3480078C12841F0D682701E71
:105C9000D049085C1C28F8D14FF00009002506E027
:105CA000CC48405D484400F0FF09681CC5B2B01EF6
:105CB000A842F5DCC749085C4845E6D1DFF818B3CF
:105CC00001F086FC8246C348407854286FD026DC19
:105CD0004B286DD015DC44286BD009DC002869D036
:105CE000412868D0422867D0432841F0A48252E17D
:105CF00047287DD048287CD049287BD04A28F4D139
:105D0000C7E24C38082881F09682DFE810F0510392
:105D1000A603E9033C047A04C20405055005F728EC
:105D200001F038811DDC592800F018870CDC55285B
:105D300000F0F985562800F04086572800F080864C
:105D40005828D2D100F0C7BEF32801F03182F428E0
:105D500001F0EF81F52801F0A981F628C5D101F005
:105D600066B9F8380828CED2DFE810F0D8089008D5
:105D700054080C08D00788074C070800954880781D
:105D8000012801D001F058BA0024D1222146641C18
:105D90008E4808304254FF222146641C425401229E
:105DA0002146641C425400210155002510E0FDE30A
:105DB000C2E24DE12AE060E0B3E084480830015DD2
:105DC000405D0844C1B2814808300155681CC5B225
:105DD000A542F2DB1D21601CC2B214467B4808308C
:105DE0008154601C79490880002081F8870002E016
:105DF00088E1C3E10AE2BDF80C00C88000231A461E
:105E00001946724802F02EFB03F042FB0024D12217
:105E10002146641C6D480830425400222146641C0F
:105E2000425401222146641C4254002101550025A0
:105E30000AE066480830015D405D0844C1B263482D
:105E400008300155681CC5B2A542F2DB1D21601C5B
:105E5000C2B214465D4808308154601C5B4908801A
:105E6000002081F88700BDF80C00C88000231A4686
:105E70001946564802F0F6FA84E70024D12221465A
:105E8000641C52480830425441222146641C42544A
:105E900052480068020E2146641C4C4808304254A7
:105EA0004E480068C0F307422146641C474808304A
:105EB00042544A480088C0F307222146641C4348E4
:105EC00008304254454802782146641C3F48083057
:105ED00042540021015500250AE03C480830015D8C
:105EE000405D0844C1B2394808300155681CC5B24C
:105EF000A542F2DB1D21601CC2B2144633480830B3
:105F00008154601C31490880002081F88700BDF869
:105F10000C00C88000231A4619462C4802F0A2FA49
:105F200030E70024D1222146641C2848083042541E
:105F300042222146641C4254294802782146641CAE
:105F40002248083042540021015500250AE01F482C
:105F50000830015D405D0844C1B21C48083001555D
:105F6000681CC5B2A542F2DB1D21601CC2B21446FA
:105F7000164808308154601C14490880002081F8BC
:105F80008700BDF80C00C88000231A4619460F4848
:105F900002F068FAF6E603221249134803F059F8B2
:105FA0000024D1222146641C084808304254432270
:105FB0002146641C42540B48008817E0B40121427A
:105FC00000002142D2000020E0000020EE1000205E
:105FD000400D03006E100020C02709000440000897
:105FE000600000206200002000F801080212214633
:105FF000641CFE484254FE4802782146641CFB485B
:10600000425400210155002508E0F848015D405D3B
:106010000844C1B2F5480155681CC5B2A542F4DB7D
:106020001D21601CC2B21446F0488154601CEF4927
:1060300008390880002081F88700BDF80C00C8806E
:1060400000231A461946E948083802F00BFA99E687
:10605000E848807810B9E748C07838B1E5488078DA
:10606000FF2804D1E348C078FF2800D18AE6E14840
:10607000C078E049897840EA0120DD4908800024A1
:10608000D1222146641CD948425444222146641C32
:106090004254D748008802122146641CD348425417
:1060A000D34802782146641CD0484254002101554F
:1060B000002508E0CD48015D405D0844C1B2CB48F1
:1060C0000155681CC5B2A542F4DB1D21601CC2B29B
:1060D0001446C6488154601CC44908390880002011
:1060E00081F88700BDF80C00C88000231A461946C5
:1060F000BE48083802F0B6F90322BD49BE4802F096
:10610000B5FF3FE60D22BD49BD4802F0A2FF0024C5
:10611000D1222146641CB548425447222146641CC2
:106120004254B648827B2146641CB0484254002148
:106130000155002508E0AD48015D405D0844C1B24D
:10614000AA480155681CC5B2A542F4DB1D21601C9C
:10615000C2B21446A5488154601CA449083908807D
:10616000002081F88700BDF80C00C88000231A4683
:1061700019469E48083802F075F903E69D48807874
:1061800020B19C488078012800D0FBE599488078B0
:106190009A4988730024D1222146641C93484254B2
:1061A00048222146641C42549448827B2146641C48
:1061B0008E48425400210155002508E08B48015DBE
:1061C000405D0844C1B289480155681CC5B2A5426A
:1061D000F4DB1D21601CC2B2144684488154601C4B
:1061E000824908390880002081F88700BDF80C003A
:1061F000C88000231A4619467C48083802F032F954
:106200000D227E497E4802F031FFBBE50D227B491D
:106210007B4802F01EFF0024D1222146641C7348F3
:10622000425449222146641C425474488088021218
:106230002146641C6D484254704802792146641C12
:106240006A48425400210155002508E06748015D75
:10625000405D0844C1B265480155681CC5B2A542FD
:10626000F4DB1D21601CC2B2144660488154601CDE
:106270005E4908390880002081F88700BDF80C00CD
:10628000C88000231A4619465848083802F0EAF830
:1062900078E55848C0785749897800EB012000B963
:1062A00070E55448C0785349897800EB0120534980
:1062B00088800024D1222146641C4C4842544A2242
:1062C0002146641C42544D48808802122146641CB9
:1062D00046484254494802792146641C4348425486
:1062E00000210155002508E04048015D405D08445B
:1062F000C1B23E480155681CC5B2A542F4DB1D2160
:10630000601CC2B2144639488154601C37490839B0
:106310000880002081F88700BDF80C00C8800023A9
:106320001A4619463148083802F09CF80D223349C4
:10633000334802F09BFE25E50D223049304802F03B
:1063400088FE0024D1222146641C284842544B2256
:106350002146641C42542948C27B2146641C2348C0
:10636000425400210155002508E02048015D405DB0
:106370000844C1B21D480155681CC5B2A542F4DBF2
:106380001D21601CC2B2144618488154601C174974
:1063900008390880002081F88700BDF80C00C8800B
:1063A00000231A4619461148083802F05BF8E9E460
:1063B0001048807820B10F488078012800D0E1E4AF
:1063C0000C4880780D49C8730024D1222146641CF2
:1063D000064842544C222146641C42540748C27B62
:1063E0002146641C0148425400210BE0F6100020B5
:1063F000620000206E10002000F8010854100020F8
:1064000000F401080155002508E0F948015D405DF0
:106410000844C1B2F6480155681CC5B2A542F4DB78
:106420001D21601CC2B21446F1488154601CF04921
:1064300008390880002081F88700BDF80C00C8806A
:1064400000231A461946EA48083802F00BF80D22D4
:10645000E849E94802F00AFE94E40D22E549E648DD
:1064600002F0F7FD0024D1222146641CE04842548A
:106470004D222146641C4254DE48408902122146C6
:10648000641CDB484254DB48827A2146641CD848AD
:10649000425400210155002508E0D548015D405DCA
:1064A0000844C1B2D2480155681CC5B2A542F4DB0C
:1064B0001D21601CC2B21446CD488154601CCC49D9
:1064C00008390880002081F88700BDF80C00C880DA
:1064D00000231A461946C648083801F0C3FF51E4A4
:1064E000C648C078C549897800EB012000B949E465
:1064F000C248C078C149897800EB0120BD49488174
:106500000024D1222146641CB94842544E2221461F
:10651000641C4254B748408902122146641CB448A6
:106520004254B448827A2146641CB1484254002146
:106530000155002508E0AE48015D405D0844C1B248
:10654000AB480155681CC5B2A542F4DB1D21601C97
:10655000C2B21446A6488154601CA5490839088077
:10656000002081F88700BDF80C00C88000231A467F
:1065700019469F48083801F075FF0D229D499E4835
:1065800002F074FD78E40D229A499B4802F061FD07
:106590000024D1222146641C954842544F222146B2
:1065A000641C42549348027C214600E04BE1641C89
:1065B0008F48425400210155002508E08C48015DB8
:1065C000405D0844C1B28A480155681CC5B2A54265
:1065D000F4DB1D21601CC2B2144685488154601C46
:1065E000834908390880002081F88700BDF80C0035
:1065F000C88000231A4619467D48083801F032FF4A
:106600003AE47E48807820B17C488078012800D028
:1066100032E47A488078774908740024D1222146F0
:10662000641C7348425450222146641C42547148F1
:10663000027C2146641C6E4842540021015500250D
:1066400008E06B48015D405D0844C1B268480155EF
:10665000681CC5B2A542F4DB1D21601CC2B2144601
:1066600063488154601C624908390880002081F821
:106670008700BDF80C00C88000231A4619465C4804
:10668000083801F0EFFE0D225A495B4802F0EEFC9B
:1066900046E40D225749584802F0DBFC0024D12281
:1066A0002146641C5248425451222146641C4254E3
:1066B0005048808902122146641C4D4842544D487E
:1066C000027B2146641C4A484254002101550025A2
:1066D00008E04748015D405D0844C1B244480155A7
:1066E000681CC5B2A542F4DB1D21601CC2B2144671
:1066F0003F488154601C3E4908390880002081F8D9
:106700008700BDF80C00C88000231A461946384897
:10671000083801F0A7FE3DE43848C0783749897849
:1067200000EB0120334988810024D1222146641CDA
:106730002F48425452222146641C42542D488089DD
:1067400002122146641C2A4842542A48027B2146F0
:10675000641C2748425400210155002508E02448C4
:10676000015D405D0844C1B221480155681CC5B2B5
:10677000A542F4DB1D21601CC2B214461C488154A2
:10678000601C1B4908390880002081F88700BDF88B
:106790000C00C88000231A4619461548083801F035
:1067A00061FE0D221349144802F060FC4FE40D22F3
:1067B0001049114802F04DFC0024D1222146641CEE
:1067C0000B48425453222146641C425409484088D5
:1067D00002122146641C064842540648827821462B
:1067E000641C0348425400210155002511E00000BB
:1067F000F61000205410002000F401086E10002054
:10680000FC48015D405D0844C1B2FA480155681C6E
:10681000C5B2A542F4DB1D21601CC2B21446F54886
:106820008154601CF34908390880002081F88700F2
:10683000BDF80C00C88000231A461946ED480838F8
:1068400001F010FE12E4EC48807810B9EA48C078F4
:1068500038B1E9488078FF2804D1E748C078FF289C
:1068600000D14EE4E448C078E349897800EB012088
:10687000E249488008464088000B498801F470616D
:1068800040EA2110DD49897801F0F00140EA011069
:10689000DA49897801F00F0140EA0130D7490880D0
:1068A0000024D1222146641CD2484254542221465D
:1068B000641C4254D148408802122146641CCD48D1
:1068C0004254CE4882782146641CCA484254002172
:1068D0000155002508E0C748015D405D0844C1B28C
:1068E000C4480155681CC5B2A542F4DB1D21601CDB
:1068F000C2B21446BF488154601CBE4908390880A2
:10690000002081F88700BDF80C00C88000231A46DB
:106910001946B848083801F0A5FD0D22B749B84816
:1069200002F0A4FB29E449F21050B449488040F237
:10693000591008800024D1222146641CAD484254DD
:1069400055222146641C4254AC484088021221461C
:10695000641CA8484254A94882782146641CA54872
:10696000425400210155002508E0A248015D405D28
:106970000844C1B29F480155681CC5B2A542F4DB6A
:106980001D21601CC2B214469A488154601C99496A
:1069900008390880002081F88700BDF80C00C88005
:1069A00000231A4619469348083801F05BFD0D2272
:1069B0009249934802F05AFB27E40D228F499048F0
:1069C00002F047FB0024D1222146641C894842542E
:1069D00056222146641C42548848C088021221462F
:1069E000641C84484254854882792146641C81484D
:1069F000425400210155002508E07E48015D405DBC
:106A00000844C1B27B480155681CC5B2A542F4DBFD
:106A10001D21601CC2B2144676488154601C754921
:106A200008390880002081F88700BDF80C00C88074
:106A300000231A4619466F48083801F013FDFBE39E
:106A40006D48C0786C49897800EB01206B49C8809B
:106A50000024D1222146641C664842545722214614
:106A6000641C42546548C08802122146641C614877
:106A70004254624882792146641C5E484254002197
:106A80000155002508E05B48015D405D0844C1B246
:106A900058480155681CC5B2A542F4DB1D21601C95
:106AA000C2B2144653488154601C524908390880C8
:106AB000002081F88700BDF80C00C88000231A462A
:106AC00019464C48083801F0CDFC0D224B494C4882
:106AD00002F0CCFAB0E30D224849494802F0B9FA75
:106AE0000024D1222146641C4248425458222146A7
:106AF000641C42544148008902122146641C3D48EE
:106B000042543E48027A2146641C3A4842540021CD
:106B10000155002508E03748015D405D0844C1B2D9
:106B200034480155681CC5B2A542F4DB1D21601C28
:106B3000C2B214462F488154601C2E49083908807F
:106B4000002081F88700BDF80C00C88000231A4699
:106B500019462848083801F085FC6DE32648C078BE
:106B60002549897800EB0120244908810024D1229D
:106B70002146641C1F48425459222146641C425439
:106B80001E48008902122146641C1A4842541B48C0
:106B9000027A2146641C1748425400210155002501
:106BA00008E01448015D405D0844C1B21148015538
:106BB000681CC5B2A542F4DB1D21601CC2B214469C
:106BC0000C488154601C0B4908390880002081F86A
:106BD0008700BDF80C00C88000231A4619460548F6
:106BE000083801F03FFC0D220449054802F03EFA46
:106BF00022E30000F61000206E1000205410002048
:106C000000F401080D22FE49FE4802F022FA002499
:106C1000D1222146641CFC484254FE222146641CB9
:106C20004254F748427C2146641CF74842540021F4
:106C30000155002508E0F448015D405D0844C1B2FB
:106C4000F1480155681CC5B2A542F4DB1D21601C4A
:106C5000C2B21446EC488154601CEB4908390880E4
:106C6000002081F88700BDF80C00C88000231A4678
:106C70001946E548083801F0F5FBDDE2E348807885
:106C800020B1E2488078012800D0D5E2DF48807842
:106C9000DB4948740024D1222146641CDA4842545E
:106CA000FD222146641C4254D548427C2146641C86
:106CB000D548425400210155002508E0D248015D25
:106CC000405D0844C1B2D0480155681CC5B2A54218
:106CD000F4DB1D21601CC2B21446CB488154601CF9
:106CE000C94908390880002081F88700BDF80C00E8
:106CF000C88000231A461946C348083801F0B2FB81
:106D00000D22BF49BF4802F0B1F995E20D22BC49FE
:106D1000BC4802F09EF90024D1222146641CBA48E6
:106D20004254FC222146641C4254B548827C2146D0
:106D3000641CB548425400210155002508E0B248C2
:106D4000015D405D0844C1B2AF480155681CC5B241
:106D5000A542F4DB1D21601CC2B21446AA4881542E
:106D6000601CA94908390880002081F88700BDF817
:106D70000C00C88000231A461946A348083801F0C1
:106D800071FB59E2A148807820B1A04880780128A1
:106D900000D051E29D488078994988740024D1221E
:106DA0002146641C98484254FB222146641C4254EC
:106DB0009348827C2146641C93484254002101552B
:106DC000002508E09048015D405D0844C1B28E484E
:106DD0000155681CC5B2A542F4DB1D21601CC2B27E
:106DE000144689488154601C87490839088000206E
:106DF00081F88700BDF80C00C88000231A461946A8
:106E00008148083801F02EFB0D227D497D4802F0B3
:106E10002DF911E20D227A497A4802F01AF900247C
:106E2000D1222146641C78484254FA222146641C2F
:106E300042547348C27C2146641C7348425400216A
:106E40000155002508E07048015D405D0844C1B26D
:106E50006D480155681CC5B2A542F4DB1D21601CBC
:106E6000C2B2144668488154601C674908390880DA
:106E7000002081F88700BDF80C00C88000231A4666
:106E800019466148083801F0EDFAD5E15F4880788D
:106E900018B15E4880780A2800DDCDE15B48807833
:106EA0005749C8740024D1222146641C56484254D4
:106EB000F9222146641C42545148C27C2146641C7C
:106EC0005148425400210155002508E04E48015D1B
:106ED000405D0844C1B24C480155681CC5B2A5428A
:106EE000F4DB1D21601CC2B2144647488154601C6B
:106EF000454908390880002081F88700BDF80C005A
:106F0000C88000231A4619463F48083801F0AAFAFB
:106F10000D223B493B4802F0A9F88DE10D2238498A
:106F2000384802F096F80024D1222146641C3648E5
:106F30004254F8222146641C42543148027D2146C5
:106F4000641C3148425400210155002508E02E48B8
:106F5000015D405D0844C1B22B480155681CC5B2B3
:106F6000A542F4DB1D21601CC2B2144626488154A0
:106F7000601C254908390880002081F88700BDF889
:106F80000C00C88000231A4619461F48083801F033
:106F900069FA51E11D488078032800DB4CE11B4869
:106FA0008078174908750024D1222146641C1648B0
:106FB0004254F7222146641C42541148027D214666
:106FC000641C1148425400210155002508E00E4878
:106FD000015D405D0844C1B20B480155681CC5B253
:106FE000A542F4DB1D21601CC2B214460648815440
:106FF000601C054908390880002081F8870007E0F7
:107000005410002000F40108F61000206E1000203B
:10701000BDF80C00C88000231A4619469F4801F0AD
:1070200021FA0D229E499F4802F020F804E10D222A
:107030009B499C4802F00DF80024D1222146641C93
:10704000964808304254F6222146641C4254944823
:10705000427D2146641C914808304254002101556C
:1070600000250AE08D480830015D405D0844C1B24A
:107070008A4808300155681CC5B2A542F2DB1D21C3
:10708000601CC2B21446854808308154601C834994
:107090000880002081F88700BDF80C00C88000231C
:1070A0001A4619467D4801F0DDF9C5E07E48807832
:1070B0007B4948750024D1222146641C774808305A
:1070C0004254F5222146641C42547548427D2146B3
:1070D000641C7248083042540021015500250AE022
:1070E0006E480830015D405D0844C1B26B4808300D
:1070F0000155681CC5B2A542F2DB1D21601CC2B25D
:107100001446664808308154601C64490880002099
:1071100081F88700BDF80C00C88000231A46194684
:107120005E4801F09FF90D225D495E4801F09EFF27
:1071300082E00D225A495B4801F08BFF0024D122E6
:107140002146641C554808304254F4222146641CF0
:1071500042545348827D2146641C504808304254B2
:107160000021015500250AE04C480830015D405DD2
:107170000844C1B2494808300155681CC5B2A5424F
:10718000F2DB1D21601CC2B2144644480830815411
:10719000601C42490880002081F88700BDF80C007F
:1071A000C88000231A4619463C4801F05BF943E0C9
:1071B0003D4880783A4988750024D1222146641CD4
:1071C000364808304254F3222146641C4254344865
:1071D000827D2146641C314808304254002101550B
:1071E00000250AE02D480830015D405D0844C1B229
:1071F0002A4808300155681CC5B2A542F2DB1D21A2
:10720000601CC2B21446254808308154601C2349D2
:107210000880002081F88700BDF80C00C88000239A
:107220001A4619461D4801F01DF90D221C491D483A
:1072300001F01CFF00E000BF00BF002001F05AF881
:107240001A48006858B9142003F0DCFE174800689B
:1072500028B9002015499431086002F019F9781C0A
:1072600087B24CF2503087420ADD00270F48943035
:10727000006808B9012000E000200C499431086042
:1072800000F0A6F9A0EB0A005845FEF4E3AC00209C
:1072900006499431086002F0FBF80000EE1000206F
:1072A0005410002000F401086E100020200121423B
:1072B0000149C860704700000020024030B5044614
:1072C00004254FF4302000F06FF80546042D17D147
:1072D0000C48006940F002000A4908610846446110
:1072E000006940F0400008614FF4302000F05CF885
:1072F00005460448006941F6FD71084001490861EE
:10730000284630BD0020024004200B49C96801F026
:10731000010109B101200EE00749C96801F004012B
:1073200009B1022007E00449C96801F0100109B160
:10733000032000E004207047002002400348006959
:1073400040F08000014908617047000000200240C1
:1073500070B504460D460426F00200F025F80646F6
:10736000042E11D10948006940F001000749086165
:107370002580F00200F018F806460448006941F63E
:10738000FE71084001490861304670BD002002408E
:107390000248034948600348486070472301674535
:1073A00000200240AB89EFCD00B502460423FFF771
:1073B000ABFF034603E0FFF7A7FF0346521E012B76
:1073C00001D1002AF7D102B90523184600BD0000FB
:1073D00030B500228B071C0F0F2303FA04F20B4B6E
:1073E0008C1053F824309343084C8D1044F825300A
:1073F00023468C1053F824308C07240F00FA04F431
:107400002343024C8D1044F8253030BD0800014064
:107410002DE9F0410246002500260020002300242B
:10742000002791F803C00CF00F0591F803C00CF091
:10743000100CBCF1000F03D091F802C04CEA050516
:1074400091F800C0BCF1000F31D0146800202BE08F
:107450004FF0010C0CFA00F3B1F800C00CEA03067F
:107460009E4220D183004FF00F0C0CFA03F7BC436F
:1074700005FA03FC4CEA040491F803C0BCF1280FA0
:1074800006D14FF0010C0CFA00FCC2F814C00AE05F
:1074900091F803C0BCF1480F05D14FF0010C0CFA74
:1074A00000FCC2F810C0401C0828D1D31460B1F809
:1074B00000C0BCF1FF0F34DD546800202EE000F165
:1074C000080C4FF0010808FA0CF3B1F800C00CEA00
:1074D00003069E4221D183004FF00F0C0CFA03F7F4
:1074E000BC4305FA03FC4CEA040491F803C0BCF168
:1074F000280F05D100F1080C08FA0CF8C2F8148026
:1075000091F803C0BCF1480F07D100F1080C4FF00F
:10751000010808FA0CF8C2F81080401C0828CED3E5
:107520005460BDE8F0810000F0B50A460023002455
:107530000021002500F00046B6F1004F02D11D4E9B
:10754000F16901E01B4E7168C0F3034583B200F49A
:107550004016B6F5401F08D121F07061154E7668CF
:1075600026F07066134F7E6012E000F48016B6F5C8
:10757000801F06D1032606FA05F4A14341F070618D
:1075800006E0460D360103FA06F6B14341F070619C
:1075900022B1460D360103FA06F6314300F00046EB
:1075A000B6F1004F02D1034EF16101E0014E71606E
:1075B000F0BD0000000001400246002093680B402F
:1075C0000BB1012000E0002070470161704700000E
:1075D0000148006870470000400000200120014978
:1075E00008607047B401214208B50121082000F06D
:1075F0000BFB4FF40050ADF8000048208DF803005D
:1076000069463E48FFF704FF4FF48040ADF80000A4
:1076100048208DF8030069463848FFF7F9FE4FF41B
:107620000040ADF8000048208DF80300694633485B
:10763000FFF7EEFE32A003F019F932A003F016F9BD
:1076400000203549087035480068012809D134A068
:1076500003F00CF9304800784006000E2E490870FF
:107660000DE030A003F002F92B4800784006000E30
:10767000294908700846007840F001000870274842
:10768000001F0068012809D125A003F0EFF8224867
:1076900000784006000E204908700DE021A003F09C
:1076A000E5F81D4800784006000E1B4908700846A2
:1076B000007840F001000870184808380068012878
:1076C00009D117A003F0D2F8134800784006000E45
:1076D000114908700DE013A003F0C8F80E480078B7
:1076E0004006000E0C4908700846007840F0010082
:1076F000087003A003F0BAF808BD0000000C0140B8
:107700000D0A000048617264576172652056657207
:1077100073696F6E3A200000600000203C812142B6
:10772000300000003100000000BFFEE708B5012175
:10773000082000F069FA1820ADF8000010208DF83C
:10774000030003208DF8020069460648FFF760FE3B
:1077500008210448FFF739FF10210248FFF735FFE1
:1077600008BD0000000C01404CF6CC400149086007
:10777000704700000030004070B505460C4645F2E9
:10778000555000F01FF8284600F010F8204600F091
:1077900013F800F003F8FFF7E7FF70BD4AF6AA20E0
:1077A000014908607047000000300040014948600E
:1077B00070470000003000400149886070470000B9
:1077C0000030004001490860704700000030004070
:1077D0000021002000BF17E001EB41020C4B33F801
:1077E00032207AB101EB410203EBC202927D022A00
:1077F00008D101EB410203EBC202527C012A01D104
:10780000012003E04A1CD1B20329E5DB00BF704729
:10781000F016002008B501210C2000F0F5F94FF416
:107820008050ADF8000010208DF8030003208DF883
:10783000020069461648FFF7EBFD00201549086075
:107840004FF40050ADF8000010208DF80300032025
:107850008DF8020069460E48FFF7DAFD00200E4958
:10786000C1F8B0010120ADF8000028208DF8030018
:1078700069460748FFF7CCFD4FF48070ADF8000073
:1078800048208DF8030069460148FFF7C1FD08BD97
:1078900000080140B40121420000214208B5002047
:1078A000009000F051F80A2003F0ACFB01236A4677
:1078B0000F21302000F0B2FF012800D108BD9DF853
:1078C0000000332801D00120F8E790200090012328
:1078D0006A461E21302003F03BFA012800D1EDE773
:1078E0000020009001236A462321302003F030FA63
:1078F000012800D1E2E70820009001236A462421F4
:10790000302003F025FA012800D1D7E72A20009083
:1079100001236A463021084603F01AFA012800D1F3
:10792000CCE74620009001236A463221302003F044
:107930000FFA012800D1C1E700F044F808B1012096
:10794000BCE70020BAE7000008B50121082000F0DC
:107950005BF94020ADF8000010208DF803000320F3
:107960008DF8020069461448FFF752FD01201349C3
:1079700008608020ADF8000010208DF8030003207F
:107980008DF8020069460C48FFF742FD01200C49C2
:10799000C1F89C012020ADF8000010208DF80300F4
:1079A00003208DF8020069460348FFF731FD0020EF
:1079B0000249091F086008BD000C0140988121425E
:1079C0000080214208B500200090009001236A4603
:1079D0002021302003F0BCF9012800D108BD00208F
:1079E000FCE700BFFEE710B54FF4407000F0A8F8C8
:1079F00010BD1CB50720FEF777F8044614B1072028
:107A000000F018F80220009000208DF804000820F3
:107A10008DF8050000208DF806006846FEF77AF81C
:107A20000220FEF74DF814B1072000F03BF80020CB
:107A30001CBD000000F01F0201219140024A4309D1
:107A400042F823107047000080E100E000F01F02C0
:107A500001219140024A430942F823107047000077
:107A600080E100E01CB50720FEF73EF8044614B1A3
:107A70000720FFF7DFFF0220009000208DF80400B0
:107A800008208DF8050001208DF806006846FEF7F5
:107A900041F80220FEF714F814B1072000F002F8B4
:107AA00000201CBD00F01F020121914042099200FC
:107AB00002F1E022C2F80011704700F01F0201211C
:107AC00091404209920002F1E022C2F80011704791
:107AD00070B5002100230F22C47804B3154C24682C
